:020000021000EC
:10B0000000800020D103020011040200130402009A
:10B010000000000000000000000000000000000030
:10B020000000000000000000000000001504020005
:10B0300000000000000000001704020019040200D4
:10B040001B0402001B04020065F301001B04020044
:10B050001B04020000000000B9D601001B0402001E
:10B060001B0402001B0402001B0402001B0402005C
:10B070001B0402001B0402001B0402001B0402004C
:10B080001B040200F9F501001B0402001B0402006E
:10B09000D5F601001B040200550202001B04020049
:10B0A0001B0402001B04020000000000000000005E
:10B0B0000000000000000000000000000000000090
:10B0C00010B5064C2378002B07D1054B002B02D07E
:10B0D000044800E000BF0123237010BD241F00209E
:10B0E000000000000418020008B5084B002B03D034
:10B0F0000748084900E000BF07480368002B00D15B
:10B1000008BD064B002BFBD09847F9E70000000074
:10B1100004180200281F0020201F0020000000004B
:10B12000164B002B00D1144B9D46402292029A1AD6
:10B13000924600218B460F461348144A121A00F01B
:10B1400067F80F4B002B00D098470E4B002B00D018
:10B1500098470020002104000D000D48002802D06F
:10B160000C4800E000BF00F02DF82000290000F09E
:10B17000DFFA00F011F8C04600000800008000204F
:10B180000000000000000000241F0020002A002012
:10B190000000000000000000084B10B5041C002B4C
:10B1A00002D0002100E000BF054B1868836A002B25
:10B1B00000D09847201C00F033F8C0460000000083
:10B1C000C01502000E4B70B500251E1C0D4CE41A74
:10B1D000A410A54204D0AB00F35898470135F8E716
:10B1E00006F0E0F9084B00251E1C084CE41AA410D8
:10B1F000A54204D0AB00F35898470135F8E770BD7D
:10B20000181F0020181F0020181F00201C1F0020DE
:10B21000031C8218934202D019700133FAE7704779
:10B22000FEE7C04648DF704775DF70478ADF70472A
:10B230008BDF70478CDF70477047C046F0B55646CD
:10B240005F464D464446F0B4394B3A4A1B7883B0CA
:10B250009A46D379002B06D1D37B002B4FD0022501
:10B260000123012102E0012500230021DB00D35C42
:10B270003148EF000370804630481E1C037084463E
:10B280002F4881460170D019C07983465C46081C5E
:10B29000002C25D1022D02D0D57D002D13D1624680
:10B2A0001370234B187043461E704B46197082452D
:10B2B00002D00122234B1A7003B03CBC9046994641
:10B2C000A246AB46F0BD157C5AB26FB2BA4201DA63
:10B2D0002B1C022072B2BA42E1DD2E1C0221DEE7F5
:10B2E000BC5C5FB2019464B2A346A74201DA281C99
:10B2F000019B77B25F45CDDD291C019ECAE7D37D56
:10B30000002B0BD0137C0C4A022013700B4A1370D5
:10B3100002230B4A1370064A1370C8E78121074ABB
:10B320001170054A1370064A1370014A1370C3E77F
:10B3300079200020FC2000207C200020171F002006
:10B34000D9200020C422002010B5174A1748D1790F
:10B350000378002909D0164C21780139C9B221702F
:10B36000002902D1013BD171DBB2D17B002909D088
:10B370000F4C61780139C9B26170002902D1013BDB
:10B38000D173DBB2D17D002909D0094CA1780139F4
:10B39000C9B2A170002902D1013BD175DBB20370A3
:10B3A000FFF74CFF10BDC046FC2000207A20002093
:10B3B000141F002000B597B001A803F01FFE00285D
:10B3C00027D1019B002B04D00122154B1A7017B016
:10B3D00000BD082202A90B7306AB029311480EAB05
:10B3E0000A718B6001F038FE002815D1FC230E484D
:10B3F000027813400370A0230381503B4381002354
:10B4000043608381FFF712FF0028E0D004F0FAFDCB
:10B41000DDE704F0F7FDD4E704F0F4FDE6E7C0460D
:10B42000D8200020782000208020002010B5041CA7
:10B43000023C03F091FA012C03D8054B1A78002A3C
:10B4400000D110BD00221A70FFF7B4FFF9E7C04623
:10B45000D8200020F0B5454657464E46E0B4051CBE
:10B4600082B001F061FE7448291C00F07FFD2B883A
:10B470001D2B19D01F2B0DD01B2B05D002B01CBCCF
:10B4800090469946A246F0BD2B7A022BF6D1FFF7E3
:10B4900091FFF3E7291CA8880831FFF7C5FE0028B3
:10B4A000ECD004F0AFFDE9E7EB7B2F1C9946634B32
:10B4B0000024984609375E1C381C311C062205F012
:10B4C0002FF9002800D1A6E00134E4B20836032C9D
:10B4D000F2D15B4C2378022B40D843460022DB7923
:10B4E0009246002B00D08EE053464A46DE0043468B
:10B4F0009A554644391C0622701C05F020F9012398
:10B500000A225146F3712378013323704D4B5A546C
:10B51000FFF794FE291C2E7C1131F608AED0687C12
:10B52000AF7C041C022F00D182E0002304E0CA1883
:10B530005278CC5C022A2FD001341B19B342F6D3C7
:10B540000022032F05D175E08B185B78885C032BF4
:10B5500054D0441C1219B242F6D38FE700223A4B62
:10B5600069469A564B46CB71CB795BB29A42D1DA97
:10B5700042464946354C2378DB00D1544344181CDD
:10B58000391C0622013005F0DAF80A2123782D4A09
:10B59000D154FFF753FEBDE70233013CCB18A4B2F0
:10B5A000640800D16AE75A781978294E12020A43D2
:10B5B000B2420DD00233002006E05A781978120208
:10B5C00002330A43B24203D00130A042F5D355E71B
:10B5D000FFF72EFE002000F09DF9002825D1022261
:10B5E000281C00241B4908300B784C6093431A4AEE
:10B5F0000B70FFF71FFE194B1C703FE70232441E11
:10B600008B18A4B2CCE74346DB7B5A42534102225B
:10B61000D31A9A4668E742464946E300D1540A22C3
:10B62000084B1A55FFF70AFE74E704F0EBFCD6E767
:10B630000223B2E70222E2E714210020FC200020CE
:10B640007A200020141F00207C200020D920002018
:10B650000D18000080200020141602007B2000201E
:10B6600038B50B78113BDBB2122B16D80C1C2B49CA
:10B670009B00CB58051C9F46D6222948002152002A
:10B68000FFF7C6FD002000F045F900283FD1254C0A
:10B690002378012B3ED0013B2370002038BD002AC7
:10B6A000FBD0101C04F0AEFCF7E763681C48198857
:10B6B00000F022FC0028F0D0F4E7072000F02AF97F
:10B6C000002821D16368184C1A88184B201C1A8056
:10B6D000291C042205F033F8201C01F01FFC00286F
:10B6E0000FD1104A13780133DBB21370002BD4D181
:10B6F000FFF760FED1E70C4801F010FC0028CCD029
:10B70000D0E704F07FFCECE704F07CFCDAE704F01F
:10B7100079FCBCE7FFF74EFE2378BCE7C4150200B6
:10B72000142100207D200020C02200207E20002047
:10B73000F0B55F4656464D464446F0B4002087B00B
:10B740000321614A002304F0E9F9002801D004F044
:10B7500059FC04F081FC002801D004F053FC5B4844
:10B7600004F0A2FC5A490422684604F0E8FF684647
:10B7700058494822002304F01BFD002801D004F0A2
:10B7800041FC01AC01200021221C04F07BFD0028BB
:10B7900001D004F037FC504804F08CFD002801D0A3
:10B7A00004F030FC201C04F08FFD002801D004F0D0
:10B7B00029FC4A4804F03AFD002801D004F022FC9C
:10B7C000474804F03DFD002801D004F01BFC012394
:10B7D0006A46137003F0A6F9002801D004F012FCA9
:10B7E000684601F0DDFA002801D004F00BFC0920C6
:10B7F000002105226844FFF70BFD3A4B012001931D
:10B80000022302218322237163790343DBB20B43BA
:10B810001340302213437F22134063710723A37127
:10B820000933E371637A1843014361722E48211C86
:10B8300001F046FB002801D004F0E4FB2B4800F0A7
:10B8400043FB002801D004F0DDFB29480121294AEF
:10B8500004F0D6F9002801D004F0D4FB802126485A
:10B860000902002204F0E6F9002801D004F0CAFB26
:10B87000FFF7A0FD214B224D9B46224B224F9A46BB
:10B88000224B234E984600239946FFF7CBFC002815
:10B8900001D004F0B7FB2B78002BF6D04B460021EB
:10B8A0002B7053465846595604F0FEFB002433785B
:10B8B0004046DB001B19FB185978013404F0F4FBF7
:10B8C000062CF4D1E1E7C046401F00201C16020000
:10B8D0001016020090200020E01C002055B401004A
:10B8E0002DB4010061B601007820002039B20100BA
:10B8F0006816020049B30100DC2000203016020067
:10B90000C4220020171F0020FC2000206016020027
:10B910007920002070B5DB4B041C1B680020DB077E
:10B9200000D470BD172CFCD8D74AA300D3589F462B
:10B93000A022D64BD205D15880239B011C1CA120EC
:10B940008C430B40D249C00014505350D14B0022BD
:10B950001B68D1489900C91804F06CF9E1E7A022EE
:10B96000CA4BD205D15880239B011C1CA1208C43BB
:10B970000B40C749C00014505350C64B00221968F1
:10B98000C54804F057F9CCE7C44D281C04F0CEF9A3
:10B9900011231C1B00D14CE1002800D049E1802379
:10B9A000BF4EDB013360012C10D0C83064216043EE
:10B9B00004F034FDB74B00221B684343281C191CBC
:10B9C00004F038F9E0233268DB011340A022B049CB
:10B9D000D2055350A1230021DB00D150A1E7A023C1
:10B9E000E021A122DB05C901D20099500021A84A1B
:10B9F000002099501222AB4B1A7092E7A023A1228B
:10BA0000C021DB05D200C901802499500021A04843
:10BA1000640119501C5099501322A24B00201A7037
:10BA20007FE7A023E0219A4ADB05C9019950002154
:10BA3000043A99509B4B00201C7072E7984BA1214F
:10BA40001A68E023DB019343A022C900D2055350BA
:10BA500000238F4900205350924A137061E7904BA6
:10BA6000A1211A68C023DB019343A0220026E02510
:10BA7000D205C90086485350844B1650D358ED0167
:10BA80006B4080256D012B4000D1E9E055501650E8
:10BA9000022C00D1F1E02821824B1C707D4B00224A
:10BAA0001B687D48594304F0C5F83AE7A023E0211C
:10BAB000774ADB05C90199500021043A99500C22BC
:10BAC000784B00201A702CE7A023A122A021DB05CF
:10BAD000D200C9018024995000216D48A401195059
:10BAE0001C50995014226F4B00201A7019E76C4BB0
:10BAF000A1211A68C023DB019343A0220025E02482
:10BB0000D205C90062485350604B1550D358E40128
:10BB1000634080246401234000D199E054501550C3
:10BB2000082103221AE05E4BA1211A68C023DB0121
:10BB30009343A0220025E024D205C9005448535065
:10BB4000524B1550D358E4016340802464012340D4
:10BB500000D18BE05450282115500422514B1A700B
:10BB60009CE7C0224E4BD2011B68A1219A43A0231F
:10BB7000C900DB0580245A500022454864011A5050
:10BB80001C505A50474B07321A700020C9E6A023B8
:10BB9000A1228021DB05D200C901C02499500021D7
:10BBA0003B48A40119501C50995015223D4B0020D0
:10BBB0001A70B6E63A4BA1211A68C023DB01934301
:10BBC000A0220025E024D205C900314853502F4B54
:10BBD0001550D358E40163408024640123403CD0D5
:10BBE0005450155005222F4B2B481A70294B002218
:10BBF0001968490004F01EF893E6294BA1211A6840
:10BC0000C023DB019343A0220025E024D205C90014
:10BC10001F4853501D4B1550D358E40163408024F6
:10BC20006401234026D05450155006221D4B1A7033
:10BC3000A3E6E0231A4ADB011168A1240B40A021EE
:10BC4000E400C9050B510023114C0B51136068E649
:10BC5000145053500221032280E714505350C1E77F
:10BC600015505350022C0AD0042115E7145053509C
:10BC7000042172E714505350D7E712210CE7022138
:10BC80000AE7C046EC2200206C1602000405000002
:10BC90000C050000F0220020C8220020F82200201D
:10BCA000E8220020F422002090DF704792DF7047E6
:10BCB00093DF7047F0B557464E464546D323894635
:10BCC000A621E0B446255B009446C25CFF31445C8B
:10BCD000554363001B1942199B005B191779C31860
:10BCE000661C82B00A339246BE423AD07E1E884617
:10BCF000BC422ED2A6421BD001341A8963001B1904
:10BD00009B005B19C118098A01328A421AD001AC22
:10BD10004B1E228063804946002360460B70211C25
:10BD2000FFF7C6FF02B01CBC90469946A246F0BD84
:10BD300052461B891289934210D001AC01332380F3
:10BD40006280E8E7C3180A334246E4B28454A7424B
:10BD5000D0D801234A4600201370E3E70023741C67
:10BD6000F2E71B8912899342E7D1F2E7F0B5564614
:10BD70004D4644465F46D422F0B45200835C95B0F1
:10BD80000133DBB283544C4A041C15680E1CAB42D1
:10BD90000ED3A8230022FF33C254484B03321A703B
:10BDA000598015B03CBC90469946A246AB46F0BDC2
:10BDB00000239B46A6235A46FF33C2540133C15C7D
:10BDC0009A460131C9B2C154613BFF3B1F1C9946E1
:10BDD0003B4B4F439846C719890041440422381C05
:10BDE00004F0ADFC5B46301C3B7101213A1CFFF7AF
:10BDF0005BFF0028D5D0A8235A46FF33E2545346B0
:10BE00004A46E35C5A43A4184246A37892789A4281
:10BE100022D0012D1BD0424692799A4245D0022D64
:10BE200015D04246927A9A4239D0032D0FD042461D
:10BE3000927B9A422DD0042D09D04246927C9A42A0
:10BE400021D0052D03D04246927D9A4215D003227F
:10BE50001A4B1A705E80A4E74246118822889142EC
:10BE6000D7D1184B19680029F1D0012201AB0290FB
:10BE70005E801A70181C8847E9E743469A8A23882F
:10BE80009A42E4D1EDE74246118A22889142D8D104
:10BE9000E7E74246918922889142CCD1E1E74246C8
:10BEA000118922889142C0D1DBE7424691882288DD
:10BEB0009142B4D1D5E7C0461C2500201C230020A8
:10BEC000002500201823002000280BD0002301218A
:10BED000054A1360054A1170054A1360054B186046
:10BEE000002070470E20FCE71C25002018250020AC
:10BEF000FC2400201823002070B5041C0D1C002811
:10BF000029D0164B08201B78002B00D170BD144B94
:10BF10001B68002BFAD0A826FF36A35D0930002B42
:10BF2000F4D1D5225200A1520E4A0F491360D422F7
:10BF30005200A354023AA354A33AFF3A201C04F03F
:10BF4000FEFB281C0121221CFFF7AEFE0028DDD1DC
:10BF50000123A355DAE70E20D8E7C04618250020B4
:10BF60001C250020FC24002000250020F0B55F46A1
:10BF700056464D464446F0B497B0002818D00029E4
:10BF800016D08B4B1B78002B12D00B880C1C051C79
:10BF9000302B00D1B1E000D8A0E0322B0FD0332BF2
:10BFA00006D1D5235B008A88C35A9A4200D1EAE0C1
:10BFB00017B03CBC90469946A246AB46F0BDD5238F
:10BFC0005B008A88C35A9A42F2D1D3235B00C35CD8
:10BFD0009846CB88002B00D1E6E1A6230026FF334C
:10BFE000EE5402ABA288281CD91CFFF763FE002880
:10BFF00000D09EE302ABDB78002BD9D0A3889C460F
:10C00000D3235B00E85C6B4B1E689846002E00D182
:10C010008DE346224243684BAA1897789978B94233
:10C0200001D100F022FC012E00D880E39979B942B9
:10C0300001D100F03EFC022E00D178E3997AB9429A
:10C0400001D100F02DFC032E00D170E3997BB942A1
:10C0500001D100F01CFC042E00D168E3997CB942A8
:10C0600001D100F00BFC052E00D160E3997D8946DB
:10C070006146B94500D082E09F8A13889F4200D074
:10C080007DE04E4B61461B680093002B77D04C4BF4
:10C090009A461B689946052B71D89B004B441A01A0
:10C0A0009346484F0192BB445B4659804621414329
:10C0B0000433181C4622691804F041FB0023019A3E
:10C0C000BB545A46009BD3644B465246013313601F
:10C0D000B34201D100F000FCA18850E0112B00D048
:10C0E00066E7D5235B00C25A8B889A4200D05FE78F
:10C0F000A8230022FF33C2545AE7D3235B00C25C5B
:10C1000004338888EB5A834200D051E7C98800295C
:10C1100000D1E7E027490E688846191C002E2ED072
:10C1200046275743EF19BB789C46234B99786145C6
:10C1300000D193E2012E00D8F7E29979614500D150
:10C1400085E2022E00D1F0E2997A614500D142E207
:10C15000032E00D1E9E2997B614500D18CE2042EE7
:10C1600000D1E2E2997C614500D17EE2052E00D14A
:10C17000DBE2997D8946011CE14500D183E2281C60
:10C18000FFF7F4FD14E7D3235B00C25CA623FF3363
:10C19000C35C9C46CB88002B21D18F89002F1ED0F9
:10C1A000094E0B8AB34200D105E21631002313E099
:10C1B000182500201C250020002500201823002021
:10C1C000FC2400201C230020022900000631881FC7
:10C1D0000088B04200D1EFE10133BB42F6D3002624
:10C1E00002ABDE704623674698465343EB181B7933
:10C1F00001379F4200D0B9E1012302A9CB70A38887
:10C200009C46D54B1E689846002E00D18FE24620F2
:10C210005043D24B281887789978B94200D1B1E2BF
:10C22000012E00D883E29979B94200D1A3E2022E0F
:10C2300000D17CE2997AB94200D195E2032E00D177
:10C2400075E2997BB94200D187E2042E00D16EE2FB
:10C25000997CB94200D179E2052E00D167E2997D3F
:10C2600089466146B9458AD19F8A03889F4200D09A
:10C2700085E7BB4B61461B680193002B00D17EE72D
:10C28000B84B9A461B689946052B00D977E79B0067
:10C290004B441B019B46B44F0093BB445B46598003
:10C2A00046214A43181DA918462204F048FA0023E3
:10C2B0000098019A3B545B46DA644B465246013380
:10C2C0001360B34200D007E70026FB6C381C984788
:10C2D00043461B68013650379E42F6D30023524630
:10C2E0001360F9E64626211C5643AF190E3104228D
:10C2F000381C04F024FA211CB81D1231042204F069
:10C300001EFAA623FF33EB5CA088002B00D047E188
:10C31000FB8803AE33803B89311C7380FFF7C6FC7A
:10C32000002800D144E6A8230022FF33EA54013B51
:10C33000E95C894BA7881A68002A00D193E246235A
:10C34000A9464B4399444B469978844B9D788D423E
:10C3500000D161E2012A00D885E29D798D4200D1A9
:10C3600045E2022A00D17EE29D7A8D4200D172E23E
:10C37000032A00D177E29D7B8D4200D163E2042A3B
:10C3800000D170E29D7C8D4200D154E2052A00D19B
:10C3900069E29A7D94463A1C8C4500D144E203211F
:10C3A000714B19705A8003E6462743465F43C7190D
:10C3B0003E790A7BB218052A00DDEEE0D2B2131CEA
:10C3C0003A719E426AD246224146514389467300E1
:10C3D0009B199B004B449A46AA445046211C3C3A68
:10C3E0000A300E3104F0ABF9534600229A8292468D
:10C3F0003A79731C934200D3CDE05A00D3189B00C6
:10C400004B449B46AB445846211C0A220A30183143
:10C4100004F095F95B4652469A823A79B31C9342EE
:10C4200000D3B8E05A00D3189B004B449B46AB4462
:10C430005846211C0A220A30223104F080F95B465A
:10C4400052469A823A79F31C934200D3A3E05A00F1
:10C45000D3189B004B449B46AB445846211C0A22F0
:10C460000A302C3104F06BF95B4652469A823A79D5
:10C47000331D934200D38EE05A00D3189B004B44E7
:10C480009946A9444846211C0A220A30363104F054
:10C4900056F952464B469A823A790536013E730068
:10C4A0009B199E004621434659437318EB1838895F
:10C4B0005B8A984200D890E5052A00D18DE5A62335
:10C4C000FF33EA54A088002A00D062E1FB8803AE63
:10C4D00033803B89311C7380FFF7E8FB002800D1D3
:10C4E00066E5A8230022FF33EA54A3889946D323A4
:10C4F0005B00EA5C184B1968002926D04623534399
:10C50000ED18164BAA789F78974200D11FE20129B7
:10C510001BD99F79974200D112E2022915D09F7A48
:10C52000974200D105E203290FD09F7B974200D1AB
:10C53000F8E1042909D09F7C974200D1EBE105295D
:10C5400003D0997D914200D1D1E10322064B1A70AC
:10C550004A465A802CE5C0461C25002000250020B4
:10C5600018230020FC2400201C230020A623FF33D6
:10C57000EF5402ABA288281CD91CFFF79BFB0028B4
:10C5800000D087E002ABDB78002B00D110E5D3238D
:10C590005B00EA5C33E61E1C80E7052305220FE7FB
:10C5A000013BDBB25A00D3189B009B19EB185B8A46
:10C5B00001339BB2ADE600235900CB185B00E318B2
:10C5C000D88963465B006344990046235343CB18E4
:10C5D000EB18988203E6198989463988894500D085
:10C5E000B6E5B84B011C1B680193002B00D1C6E5D2
:10C5F000B54B9A461B689946052B00D9BFE59B00B1
:10C600004B441B019B46B14F0093BB445B46598092
:10C6100046214A43181DA918462204F090F8022327
:10C620000098019A3B545B46DA644B46524601330C
:10C630001360B34200D04FE50026FB6C381C9847CE
:10C6400043461B68013650379E42F6D346E699882A
:10C6500089463988894500D073E5C2E7198889463B
:10C660003988894500D065E5BBE7198A894639884C
:10C67000894500D07AE5B4E79989894639888945A2
:10C6800000D06CE5ADE79B8A9C463B889C4500D07A
:10C6900075E5A6E7A8238E4AFF331268EE54013BE6
:10C6A000A688EB5C002A00D19FE0414659430B1C51
:10C6B000ED18884BA9789F788F4200D18EE0012A2F
:10C6C00000D892E09F798F4200D180E0022A00D109
:10C6D0008BE09F7A8F4200D172E0032A00D184E080
:10C6E0009F7B8F4266D0042A00D17EE09F7C8F42E0
:10C6F0005AD0052A00D178E09F7D321C8F4200D0AD
:10C700004DE6998A2B88994200D048E66D4B321C41
:10C710001968002900D142E6012203AB1A705E803D
:10C720000490181C8847A28839E6011C27E5614659
:10C7300025E5A823FF33EE54013BE95C644BA68852
:10C740001A68002A51D046234B43B1E7198A89461B
:10C750000188894500D07FE58BE599898946018864
:10C76000894500D071E584E51989894601888945A4
:10C7700000D063E57DE5998889460188894500D028
:10C7800055E576E5198889460188894500D047E551
:10C790006FE5013AD2B253009A1892005118691805
:10C7A0004B8A01339BB292E61F8ABC462F88BC4558
:10C7B0009FD1ABE79F89BC462F88BC4593D1A5E7A5
:10C7C0001F89BC462F88BC4500D086E79EE79F881E
:10C7D000BC462F88BC4500D078E797E71F88BC4649
:10C7E0002F88BC4500D06AE790E7321CD7E59D88CA
:10C7F000A8464D462D88A84500D0B2E5314B3A1CDD
:10C800001968002900D1CAE5012370607780337070
:10C81000301C8847A288C2E51D88A8464D462D8851
:10C82000A84500D096E5E9E7998A4B461B889942CE
:10C8300000D0B4E5E2E71D8AA8464D462D88A845FC
:10C8400000D0A3E5DAE79D89A8464D462D88A84586
:10C8500000D094E5D2E71D89A8464D462D88A8450D
:10C8600000D085E5CAE73A1C99E519888946118800
:10C87000894501D0FFF7D7FBFFF703FC198A8946EA
:10C880001188894501D0FFF7EEFBFFF7FAFB998984
:10C8900089461188894501D0FFF7DDFBFFF7F1FBE1
:10C8A000198989461188894501D0FFF7CCFBFFF72C
:10C8B000E8FB998889461188894501D0FFF7BBFBC1
:10C8C000FFF7DFFB18230020FC2400201C2300209E
:10C8D0001C250020002500200026FB6C381C9847F2
:10C8E00043461B68013650379E42F6D3F6E49A8AD7
:10C8F0002B889A4200D028E6184B1B68002B00D1E9
:10C9000023E64A467280012270603270301C9847DC
:10C91000A388994619E61F8AB8462F88B84500D0E3
:10C920000DE6E9E79F89B8462F88B84500D000E6B4
:10C93000E2E71F89B8462F88B84500D0F3E5DBE76A
:10C940009F88B8462F88B84500D0E6E5D4E71F8811
:10C95000B8462F88B84500D0D9E5CDE71823002088
:10C960007EDF70477FDF704785DF7047A9DF704744
:10C97000AADF7047002070470020704700207047F2
:10C98000002070470020704700207047F8B54378BA
:10C99000124E19018A59002A0BD05D00104CE8187C
:10C9A00080002018807A47B2002F11DB002200217E
:10C9B00003E0002200210A4C5D00EB189B00E31805
:10C9C00018890323FFF7D2FF002800D00548F8BDDF
:10C9D0004006EBD47118043192B2EEE7FC2500203A
:10C9E000242500204180000000207047F0B585B06C
:10C9F0000A236A4653804B78234D5A00D3189B0074
:10CA0000EB18061C18896B460C1C9A1C01A9032301
:10CA1000FFF7AEFF002802D0002005B0F0BD6B4646
:10CA200060781A4F0001381804305A8801A903F0C1
:10CA300077FE002817D063781B01FA58002A21D10D
:10CA4000134D6A46528801A9FA50607800013818DF
:10CA5000043003F074FE6178301C0901791810224B
:10CA60003423A847D8E7607843001B189B00ED18D3
:10CA7000AB7A9B07D0D40001381800211022FEF7B2
:10CA8000C7FBC9E7034DDCE724250020FC25002077
:10CA9000B1ED010039EE010038B5031C4878094CAE
:10CAA00000010D1C2018191C1022342302F008FA72
:10CAB000002804D16B781B011A59013200D038BD0F
:10CAC0001851FCE7FC250020F0B557464E46454678
:10CAD000E0B4434F92B03C68002C48D01A9C482CDC
:10CAE00045D81E1C3F4B914601936A46002308948B
:10CAF000884682461374099600243B4D02E00134B7
:10CB0000072C11D0A1B2281C02AA02F029F9002892
:10CB1000F5D1504602A9082203F002FE0028EED10A
:10CB2000E4B201ADAC7003E001ADAC78FF2C1ED0D7
:10CB30004346032B2CD02D4BF31AA72B1DD92C4B7E
:10CB4000F31A1B2B2FD800236B700AAB09932023F9
:10CB500008934246022A3CD0022213436A461374C9
:10CB600007AB0593281C3B6804A94A46984712B0B6
:10CB70001CBC90469946A246F0BD4B461D49002B71
:10CB80000BD00B680122A24093430B602023E0E707
:10CB90001A9B482B22D04323E0E70122A2400B68D6
:10CBA0001342E4D0EEE71448361A3609DFD13023B9
:10CBB0006A4613742F3BEB70104B6E709A7A3023D9
:10CBC0009207C6D400211022FEF722FB6B461B7C85
:10CBD000BFE7012213436A461374C1E72323BDE76D
:10CBE0001026002000FFFFFFD82500203025002060
:10CBF000E02500200C260020FC2500202425002014
:10CC000038B5031C4878094C00010D1C2018191C6C
:10CC10001022342302F054F9002804D16B781B0150
:10CC20001A59013200D038BD1851FCE7FC2500200C
:10CC3000F8B54378124E19018A59002A0BD05D00CD
:10CC4000104CE81880002018807A47B2002F11DBC2
:10CC50000022002103E0002200210A4C5D00EB18B5
:10CC60009B00E31818890323FFF780FE002800D0FB
:10CC70000548F8BD4006EBD47118043192B2EEE7D6
:10CC8000FC2500202425002041800000F0B585B05F
:10CC90000A236A4653804B78234D5A00D3189B00D1
:10CCA000EB18061C18896B460C1C9A1C01A903235F
:10CCB000FFF75EFE002802D0002005B0F0BD6B46F5
:10CCC00060781A4F0001381804305A8801A903F01F
:10CCD00027FD002817D063781B01FA58002A21D1BC
:10CCE000134D6A46528801A9FA506078000138183D
:10CCF000043003F024FD6178301C090179181022FA
:10CD00003423A847D8E7607843001B189B00ED1830
:10CD1000AB7A9B07D0D40001381800211022FEF70F
:10CD200077FAC9E7034DDCE724250020FC25002025
:10CD3000B1ED010039EE010070B5041C4378164DC9
:10CD40005A00D3189B00EB1818892378134E59000A
:10CD5000C918890071180431FFF702FE00281AD1A2
:10CD600023785A00D3189B00F6180123727A1343D4
:10CD7000737263785A00D31804229B00EB18997AD7
:10CD80000A439A7263785A00D31820229B00ED1848
:10CD9000AB7A9343AB7270BD24250020102600208F
:10CDA000F0B557464E464546E0B484B0002863D0FF
:10CDB00000223A4B82461A605A729A72012338480E
:10CDC00000218372023B0381C3720732FEF720FA0F
:10CDD000344800211022FEF71BFA334B00259946F8
:10CDE0001C1C0123FF269846304F201C00210622E0
:10CDF0001130FEF70DFA201C10220021FEF708FA70
:10CE00004346AB403A6801359A432674E6753A606A
:10CE10001834072DE9D148236A46254E9380254BC7
:10CE20006846311CD580009301F022FF00281DD1F7
:10CE30000123214F3B7053461B78002B1ED1002548
:10CE4000A9B2301C02AA01F08BFF041E20D1484673
:10CE500002A91822002302F033F800281BD118235E
:10CE60009C460135E144072DEAD1002004B01CBCEA
:10CE700090469946A246F0BD1048F7E76B466A46D1
:10CE8000DB889188301C594389B202F06DF8EDE7D8
:10CE900000233B70EAE73C70E8E7C046102600201C
:10CEA00024250020FC250020302500200C26002011
:10CEB000D8250020C9CA0100202500200E800000CE
:10CEC000F8B5114B1B78002B01D11048F8BD002894
:10CED0000AD0002908D00B68002B05D00C4E37680B
:10CEE000002F03D00B48F1E70B48EFE7051C301C7F
:10CEF0000C1C08C00531052203F021FC2379002019
:10CF0000B3722F70E2E7C0462025002008800000A1
:10CF100010260020048000000E800000F8B5454B6C
:10CF20001B78002B01D14448F8BD00280BD00378B2
:10CF3000002BF8D1414B1A68002AF4D04278002A1D
:10CF400003D03F48F0E73F48EEE73F4A917A012996
:10CF5000F7D08907E7D58178FF2908D0D17A817089
:10CF600010893A4A111C1231FFF7FEFCDCE7D17A36
:10CF7000FF29F4D1364CE17DFF2919D02F21615CC6
:10CF8000FF2954D04721615CFF294ED05F21615CAD
:10CF9000FF2948D07721615CFF2942D08F21615C55
:10CFA000FF293CD0A721615CFF2936D02948BBE787
:10CFB00000211578022D2ED018254D4365192E1C01
:10CFC00017682F619588B5829579B575FD26182566
:10CFD0004D436419E6750C244578C9B2654355196B
:10CFE000E9728170017861435918497AC9070FD5F0
:10CFF0002025417861435218917A29439172022188
:10D000000278002054431B195A7A0A435A728BE75C
:10D01000FFF792FE88E7FE26D9E7F939C9E705212F
:10D02000C7E70421C5E70321C3E70221C1E70121C6
:10D03000BFE7C04620250020088000001026002001
:10D04000108000000E80000024250020E025002034
:10D050003025002043800000F0B557464E46454637
:10D06000E0B42B4B1B78002B05D12A481CBC904602
:10D070009946A246F0BD002842D0002940D00B6856
:10D08000002B3DD08B68002B3AD00378002BECD1DD
:10D09000214B1B68002BE8D00020814602308246DD
:10D0A00001381E4A002300241D4D844620E0087BE1
:10D0B000844207D26746D07D074203D18F68A00023
:10D0C000C2510134087981450ED25646D07D0642C0
:10D0D0000AD11027B8464846904446460F6880005B
:10D0E000C65101208046C14401331832072B09D0B4
:10D0F000E87A9842DBD15646A87A0642D7D0F3E7C1
:10D100000848B3E74B460C730B710020AEE7C046EE
:10D110002025002008800000102600203025002057
:10D12000242500200E800000F0B557464E464546A7
:10D13000E0B4C84B8EB01B78002B30D0C64D2F68A2
:10D14000002F2CD0FF2302AA53709370D37003AC2E
:10D15000031D63602C230022238102AB1A70038815
:10D16000102B00D13AE1FF218288BC4E9246B27A60
:10D1700088469146910707D5B9498A4500D1BAE159
:10D180003189514500D1B6E1192B44D00DD91E2B60
:10D1900000D116E1522B00D10CE11A2B26D00EB093
:10D1A0001CBC90469946A246F0BD112B00D1CDE0A3
:10D1B000132BF4D10022AB4B0692079208920992EE
:10D1C0000A93F37A00215800C318A748DB00C3185C
:10D1D0000B93504606AB0C920D92FFF7C3FB002851
:10D1E000DDD10423B27A1343B372D8E7037A112B4B
:10D1F00000D16BE180234A465B421A439533B272F9
:10D200002370AB7A994A9B009B5802A89847002349
:10D210002F689846D9E001216B7A4A468B436B729E
:10D2200014238C4603318A43B2722370037A002B95
:10D2300000D047E1437A194200D178E14346FF2B01
:10D2400000D174E108231A43437BB2729B0709D5CE
:10D25000434661465B00844A4344DB00D318DA7DD1
:10D260008A43DA75F37AFF2B00D160E13378022B21
:10D2700010D043465B007C4A4344DB00D3181A1CA1
:10D28000316819610221B3889382B3799375D37D94
:10D290008B43D3756A46434606AFD380D188744822
:10D2A0003A1C01F05DFD002838D102AB5B785A00D2
:10D2B000D3189B00F3189B7A5B0600D5A4E16D4B55
:10D2C000984602AB9B78381C5900CB186649DB00A6
:10D2D000C91818220023C047002812D102AB597880
:10D2E00040304B005B189B00F3189A7A82439A7285
:10D2F000CB00591A8B005B49381CC9181C22182313
:10D30000C04702AB1B78381C5A00D3189B00EB189F
:10D310009B7A594A9B009B5802A9984701230022F7
:10D3200098462F6802A8211CB8472378122B34D1C5
:10D33000B37A012B2DD00123B372023B3381F372F8
:10D34000301C00210722FDF763FF22E0022349463B
:10D350004A4699430B1CB172120700D48EE04AB2C0
:10D36000002A00DA0BE1002290465B0705D56B7AB4
:10D37000013293436B72012398461023B372023338
:10D38000237002A82B68211C002298472378122BB7
:10D39000CED04346002B00D101E702226B7A1A421D
:10D3A00000D1FCE62024B17A0C4200D0AEE09343D9
:10D3B0006B72F4E6AB7A2D4A9B009B5802A8984703
:10D3C000EDE6132323700023984602A8211C0022B7
:10D3D000B8472378122B00D0E1E6A9E71F4EB37AB5
:10D3E000DB0700D4DBE60223B3720F33237002ABFA
:10D3F0005A7083881C4F338108239946836881447F
:10D4000033604B469B881037B3804B469B79B37192
:10D4100000239846381C4946072203F081F900286A
:10D4200000D188E001239C46E04443461837072B8F
:10D43000F0D12B6802A8211C002298472378122BD8
:10D4400000D0ACE600239846B37A012B00D072E7F7
:10D45000A5E6C04620250020102600202425002017
:10D46000FFFF0000E025002030250020CC16020040
:10D47000D8250020B1ED0100DC1602004246FF2A4B
:10D4800000D170E7634B570099464B464744FF0075
:10D49000D81900214F4406221130FDF7B9FE0021B2
:10D4A0001022381CFDF7B4FE424601219140FF23B3
:10D4B00059483B740268FB758A43026002AA937064
:10D4C000B37A50E71A1C012398462BE74B461B07FB
:10D4D00000D48FE651480A2204300021FDF798FE5F
:10D4E000162323706023B27A1343B37202236A7A3D
:10D4F00013436B7212E7F17A8846424602A98A709A
:10D50000002294460A1C614651703DE63089291D6F
:10D51000FFF726FA002800D041E601236A7A134378
:10D5200004226B72B37AA3431343B37237E6012329
:10D5300000229846F6E643466A4693710823B17A7C
:10D5400092790B43B37202AB9A70F27243466A4609
:10D55000D380D188324806AA01F002FC002800D00E
:10D5600055E606A91C2218232E4801F0A9FCAB7A27
:10D570002D4A9B009B5806A802A9984747E66A4691
:10D58000434606AFD380D18825483A1C01F0E8FB1A
:10D59000002895D102AB5B785A00D3189B00F31892
:10D5A0009B7A5B0633D4214B984602AB9B78381CA0
:10D5B0005900CB181749DB00C91818220023C047AF
:10D5C000002812D102AB597840304B005B189B0009
:10D5D000F3189A7A82439A72CB00591A8B00114938
:10D5E000381CC9181C221823C04702AB1B78381CF2
:10D5F0005A00D3189B00EB189B7A0D4A9B009B584E
:10D6000002A99847B37AAEE60A4B984659E6094B09
:10D610009846CAE7302500200C260020FC25002073
:10D62000D8250020E0250020EC16020075C9010075
:10D63000DC16020039EE0100F0B5002820DBFF27E0
:10D640001B4B03229C463B1C8408C026C0B20240F0
:10D65000D2009340A4006444B600A5599D438B01B9
:10D660003B409340191C2943A1511F2318401E3BE6
:10D670008340C022181C0E4B520098501860F0BD19
:10D68000FF260C4A03249446321C0F23C0B20440E8
:10D69000E400A2400340083B9B089B006344DD6913
:10D6A00095438A013240A240111C2943D961DCE72D
:10D6B00000E100E000ED00E0F0B544465F4656466C
:10D6C0004D46F0B49C4A87B013680024012B00D16A
:10D6D000AEE09A4B1A68012A00D1B7E0984B1A685D
:10D6E000012A00D1C2E0974B1A68012A00D1CDE08F
:10D6F0000022954B02921A68012A00D1D8E0230734
:10D700000BD0E30700D5DFE0A30700D5EBE063070C
:10D7100000D5F6E0230700D502E1002C06DB07B0B8
:10D720003CBC90469946A246AB46F0BD002301277B
:10D730000493C03399460126844D7F42002303930E
:10D74000E023DB0000249846231C4033E95C4BB205
:10D7500001332CD0C9B24B46081C98433B1CC34034
:10D760001E4224D08B0901932B1820331B785BB207
:10D770009B00EB589C46002B35D0331C83409A46C7
:10D78000019B032B35D0A023DB059B46434682003B
:10D790005A44D3580592C022920213401B0C191C04
:10D7A00053469346029A1A4212D1032926D00134D5
:10D7B000042CC9D1039B002BB1D0A223A022DB00F3
:10D7C000D205D358029A9A42A9D0049F0293B5E792
:10D7D0000229ECD1019B032B16D06346002BE6D027
:10D7E0000199E047E3E7019B032BE0D1331C834021
:10D7F0009A465246049B13430493C4E7019B032BB0
:10D80000EBD180239B029B4643460599CB589A4611
:10D8100052464F4B134042468B508B585A461A4340
:10D82000131C42468B50039B0133DBB20393D4E7B6
:10D83000C1214848890041580B4200D149E73F4B7C
:10D8400014601A680134012A00D047E7C122414917
:10D850009200895802220A4200D13FE70021196054
:10D86000374B14431A68012A00D03CE7C1223949DA
:10D870009200895804220A4200D134E7002119603D
:10D88000304B14431A68012A00D031E7C1223149D4
:10D890009200895808220A4200D129E70021144346
:10D8A00000221960284B02921A68012A00D026E74C
:10D8B00000221A6080231B061C43A022A223D2054B
:10D8C000DB00D35802931AE7A223224ADB00D05888
:10D8D000D1581E4DC00489032B68C00E890F98478C
:10D8E000A30700D413E71C4B1A4A184DD058D1583F
:10D8F000C00489036B68C00E890F9847630700D482
:10D9000008E7A323134ADB00D058D1580F4DC004B9
:10D910008903AB68C00E890F9847230700D4FCE643
:10D920000C4A0E4B094DD058D158C0048903C00E83
:10D93000890FEB689847F0E6006100400461004001
:10D94000086100400C6100407C6100401C26002002
:10D95000FFFFFCFF00600040140500001C050000F4
:10D9600029DF704728DF704730B583B0002806D024
:10D97000112806D108230F4A11680B43136003B026
:10D9800030BD021C0C4801788B005B189B00C51849
:10D99000281CE9686B694C0064182979074DA400BC
:10D9A0002D680C300095064D6459A0470422054BA4
:10D9B0001A70E4E74827002064260020542700203E
:10D9C000382700204D270020F0B55F464D464446DD
:10D9D0005646F0B45E4F85B03C785E4D012C00D1C8
:10D9E00088E0002C00D16DE0022C16D0032C0DD164
:10D9F000594B1868FFF7B6FF021E07D0112800D058
:10DA000080E00823554A11680B43136005B03CBC05
:10DA100090469946A246AB46F0BD504B99461B68CE
:10DA200003932B789E00F3189B00EE1833699846F9
:10DA300080235B05196940460904090C9B4602F0E6
:10DA4000EDFC454B824618605B4619694346581EFB
:10DA5000F3880904C018090C02F0E0FC82454CD0A0
:10DA60000323039C9C434B461C603D4B1B68002BCF
:10DA700002D10233234262D000223A4B1A703A4B51
:10DA80005869431C54D080235B0519690904090CAB
:10DA900002F0C4FC031C80225205106911690004C5
:10DAA000013B000C09045843090C02F0B7FCFFF7D6
:10DAB00059FF021EAAD0112824D108231C434B462B
:10DAC0001C60A3E7294B1C60294B1C606B78002B62
:10DAD0009CD02B789A00D3189B00ED18EA88254B30
:10DAE0001A602B79032B27D0042B25D0012B00D0D3
:10DAF0008CE73B7000F000FC88E70123039A9A430F
:10DB00001443B0E72B789800C01880002E18301C02
:10DB1000184DF3682D685C00E4183179736900953D
:10DB2000154DA4000C306459A04704233B706DE7E9
:10DB300080235B055B69AEE700F020F866E7094AE1
:10DB400050461370FFF70EFFFFF70EFF5EE7C0466B
:10DB50004D27002064260020602700204827002051
:10DB60005C2700204C2700200010001058270020C0
:10DB7000302700205427002038270020F0B55F46CA
:10DB800056464D464446F0B45B4B5C481A788027B5
:10DB900091008A1892009B18DD681E696A0052196C
:10DBA00092008218148950895268604380469044DC
:10DBB000DA881B89141C9946514B92469B460023D8
:10DBC0005A467F05396983B009044C441360090C37
:10DBD000301CA41902F0A8FC002924D13B699BB297
:10DBE0009A4537D044456CD0022D33D0301C39696A
:10DBF000484489B202F098FC424B8908196039699F
:10DC0000201C0904090C02F08FFC002932D10222E9
:10DC10003D4B1A70FFF7D8FE03B03CBC90469946C6
:10DC2000A246AB46F0BD022D14D0301C39694844E1
:10DC30000904090C02F078FC324B89081960396933
:10DC40004445E4D00904090C201C02F06DFC0029B5
:10DC5000DDD00FE080235B051969301C0904090C35
:10DC600002F0DCFB0322294B1860274B1A70FFF7E8
:10DC7000ABFED1E780256D0529692B696A46994677
:10DC80004346D380D08889B202F0C8FB6A464B462F
:10DC9000A6B2D380071CD188301C02F0BFFBBFB2F4
:10DCA00080B287421DD02C692969301C89B202F0EC
:10DCB0003BFC5B462404240C89B2641AA4081C6053
:10DCC000A5E74B46002BC5D0022DC3D0301C3969C7
:10DCD000484489B202F028FC0A4B890819603B6964
:10DCE00095E7434624041B041A0C240C131B5A46C4
:10DCF0009B0813608BE7C04664260020382700206D
:10DD0000342700205C2700204D27002060270020BA
:10DD1000F8B546464F46C0B41D4D08AC24886E7811
:10DD2000A44604240A2E2DD02C78A046A419092C30
:10DD300000DD0A3C14277C432C196261221C2071EF
:10DD40000C32B94681C981C2E38063462381002435
:10DD5000104B01361A786E70A24213D142464F46DC
:10DD60005743ED190C4AE98811602A79032A07D034
:10DD7000042A05D0012A05D11A70FFF725FE01E01B
:10DD8000FFF7FCFE201C0CBC90469946F8BDC0462F
:10DD9000642600204D27002054270020082170B55C
:10DDA0000C1C244A82B013681C4009D08B431360BA
:10DDB000214B224A1B789B009B58984702B070BDAC
:10DDC0001F4D2B789800C3189B00EE183179042959
:10DDD0002AD0F268736950008218301C194E9200E4
:10DDE00036680C300096184E96590022B047012034
:10DDF0002A7893009B189B00EB181C71DC80D8607C
:10DE00001C615C611C816B780132013BD2B26B708A
:10DE10000A2A06D02A7000220C4B1A70FFF7D4FD94
:10DE2000CCE700232B70F6E70122084B1A70FFF7AE
:10DE3000CBFDC3E7482700204C2700201017020025
:10DE40006426002054270020382700204D2700207A
:10DE500030B5244B83B05869431C3ED080235B050A
:10DE600019690904090C02F0D9FA041C80235B0526
:10DE70001869196900041A69000C631E58431A4B8B
:10DE800009041B68090C92B292085943FFF768FD18
:10DE9000021E06D0112806D10823144A11680B432C
:10DEA000136003B030BD12490B789800C018800091
:10DEB0000D18281CEB6829795C00E4186B690D4D7E
:10DEC000A4002D680C3000950B4D6459A047042226
:10DED0000A4B1A70FFF778FDE3E780235B055C6966
:10DEE000C4E7C0460010001060270020482700202B
:10DEF0006426002054270020382700204D270020CA
:10DF0000802230B55205146921492404230C0C6881
:10DF100083B0013C5C431F4B5869431C35D01169E9
:10DF20000904090C02F07AFA80235B0519691A4B7F
:10DF300009040138090C41431A68201CFFF710FD41
:10DF4000021E06D0112806D10823144A11680B437B
:10DF5000136003B030BD12490B789800C0188000E0
:10DF60000D18281CEB6829795C00E4186B690D4DCD
:10DF7000A4002D680C3000950B4D6459A047042275
:10DF80000A4B1A70FFF720FDE3E75069CCE7C04663
:10DF900060270020001000105C2700204827002088
:10DFA0006426002054270020382700204D27002019
:10DFB000082330B51E4D83B02C68234214D1A3072B
:10DFC00002D501231C432C6002221A4B1A701A4BF3
:10DFD0001868FFF7C7FC021E04D011280DD10823D2
:10DFE0001C432C6003B030BD9C43124B134A1B787A
:10DFF0002C609B009B589847F4E711490B789800D8
:10E00000C01880000D18281CEB6829795C00E41802
:10E010006B690C4DA4002D680C3000950A4D6459B5
:10E02000A0470422094B1A70FFF7CEFCDAE7C0467E
:10E03000482700204C2700206027002010170200EE
:10E040006426002054270020382700204D27002078
:10E05000F0B58027274C7F05237839699A00D318BB
:10E060009B00E3181A89DD881B69AD18ED180904B7
:10E0700083B0090C281C02F057FA1F4B0E1C58697C
:10E08000431C35D039690904090C02F0C7F9802313
:10E090005B05196901380904090C4143174B8919BB
:10E0A0001A68281CFFF75CFC021E06D0112806D156
:10E0B0000823134A11680B43136003B0F0BD2378A3
:10E0C0009800C01880002618301C0E4CF368246895
:10E0D0005D003179ED18736900940B4CAD000C3084
:10E0E0002C59A0470422094B1A70FFF76DFCE4E796
:10E0F0007869CCE764260020001000103427002047
:10E100004827002054270020382700204D270020D2
:10E1100030B5154B83B01868FFF724FC021E06D0FB
:10E12000112806D10823114A11680B43136003B06C
:10E1300030BD0F490B789800C01880000D18281CBE
:10E14000EB6829795C00E4186B690A4DA4002D681E
:10E150000C300095084D6459A0470422074B1A70F3
:10E16000FFF732FCE3E7C046602700204827002085
:10E170006426002054270020382700204D27002047
:10E18000082370B52A4D82B02C68234209D09C43E5
:10E19000284B294A1B782C609B009B58984702B05B
:10E1A00070BD0122234B1A70244B5869431C3BD08D
:10E1B00080235B0519690904090C02F02FF9061C7C
:10E1C00080235B051869196900041A69000C731E25
:10E1D00058431B4B09041B68090C92B2920859431F
:10E1E000FFF7BEFB021EDAD0112803D108231C431F
:10E1F0002C60D4E713490B789800C01880000D18E4
:10E20000281CEB6829795C00E4186B690E4DA400AA
:10E210002D680C3000950D4D6459A04704220C4B1D
:10E220001A70FFF7D1FBBAE780235B055E69C7E789
:10E23000482700204C270020101702000010001073
:10E240006027002064260020542700203827002063
:10E250004D27002030B5224B83B05869431C3AD07B
:10E2600080235B0519690904090C02F0D7F8031C27
:10E2700080225205106911690004013B000C090459
:10E280005843090C02F0CAF8FFF76CFB021E06D0D7
:10E29000112806D10823134A11680B43136003B0F9
:10E2A00030BD11490B789800C01880000D18281C4B
:10E2B000EB6829795C00E4186B690C4DA4002D68AB
:10E2C0000C3000950A4D6459A0470422094B1A707E
:10E2D000FFF77AFBE3E780235B055B69C8E7C0468D
:10E2E000001000104827002064260020542700203A
:10E2F000382700204D270020F0B58027404D7F05AE
:10E300002C783969A60033199B00EB18DA8889B29A
:10E3100083B08A4218D8196918898C4692086044DB
:10E320005969FFF71DFB021E06D011282DD10823C5
:10E33000344A11680B4313603419A4002C19E28885
:10E34000314B1A6003B0F0BD196938698C4600047E
:10E35000000C121A18893C695969604480188918A0
:10E36000A2B29208FFF7FCFA021E06D0112827D1AC
:10E370000823244A11680B43136080235B051B6943
:10E38000214A1B041B0C1360DCE72B789800C01893
:10E3900080002918CB68081C5F00FF180B79BF00AC
:10E3A0009C464B6919490C300968009118497F58FF
:10E3B0006146B8470422174B1A70FFF705FBBBE70D
:10E3C0002B789800C01880002E18301C0F4DF36871
:10E3D0002D685C003179E418736900950C4DA40038
:10E3E0000C306459A04704220A4B1A70FFF7ECFA6C
:10E3F00080235B051B69044A1B041B0C1360A1E707
:10E4000064260020482700203027002054270020C1
:10E41000382700204D2700200823F0B54D464446FC
:10E420005F4656461A1CF0B4774D85B02C682240E2
:10E4300091465FD1754F3E78B30003939B199B00C3
:10E44000FB181A69511EDA881B898A18D31802939F
:10E4500080235B059B4619696D4B1B689846002B12
:10E4600057D16C4B1B689A4680235B05196902984B
:10E470000904090C01F0D2FF824500D285E0434631
:10E4800000D17AE0002B00D079E0039B9C466644E3
:10E49000B600BC192179042900D1AFE0201CE36843
:10E4A0000C305A00D21863695B4C920024680094C7
:10E4B0005A4C14590022A047414601203A78930053
:10E4C0009B189B00FB181971D86041464046D980C3
:10E4D0001861586118817B780132013BD2B27B70A0
:10E4E0000A2A00D17BE03A7000224D4B1A70FFF7E8
:10E4F0006BFA07E09C434B4B4B4A1B782C609B000C
:10E500009B58984705B03CBC90469946A246AB46FE
:10E51000F0BD404B09041B68090C02989A4601F0B3
:10E520007DFF5045A0D14A46404B1A6001234A4620
:10E5300023432B603B4B1A703D4B5869431C51D011
:10E540005B4619690904090C01F068FF031C80226D
:10E550005205106911690004013B000C090458437D
:10E56000090C01F05BFFFFF7FDF9021ECAD011286C
:10E570003BD109231C432C60C4E7002B05D00322A8
:10E58000284B1A70FFF764FDBCE70022274B50466A
:10E590001A60244B02321A70FFF7E4F9021EB1D060
:10E5A000112818D03B789900CB189B00FD18E9681A
:10E5B0004C006418281C29796B69174DA4002D683C
:10E5C0000C300095154D6459A0470422144B1A7065
:10E5D000FFF7FAF996E708231C432C6092E7002323
:10E5E0003B7081E75B465B69B1E73B789800C018F8
:10E5F00080003D18EB685C00E418DBE70122084B63
:10E600001A70FFF7E1F97DE7482700206426002013
:10E6100034270020602700205427002038270020BE
:10E620004D2700204C270020101702005C270020F7
:10E6300000100010F0B54E46574645460823E0B49A
:10E640008C4E82B03468234200D093E08A4B1A6823
:10E65000571C1F60894B1D68002D50D1884B8022AC
:10E6600099461B7852059D00ED18AB00984608238B
:10E670004D469A464544AA4453469B681169581E24
:10E68000EB880904C0182B89090CC01801F0C6FEDC
:10E69000874200D282E07B4B00D17BE01F68002FD5
:10E6A00000D19CE001231A1C224000D08DE02343BE
:10E6B0003360754B1A70754B5869431C00D1BEE02E
:10E6C00080235B0519690904090C01F0A7FE031CEE
:10E6D00080225205106911690004013B000C0904F5
:10E6E0005843090C01F09AFEFFF73CF9021E49D08D
:10E6F000112800D0A7E009231C43346042E0042124
:10E70000614B197080235B051F693F043F0C574321
:10E710005E4A5069421C3BD019690904090C01F09A
:10E720007DFE80235B05196901380904090C41430A
:10E730002A1C381CFFF714F9021E23D011284AD0D6
:10E740004F4801788B005B189B00C518281CE968AE
:10E750004C006418A40029796B694D4D0C302D686C
:10E7600000954C4D6459A04704224B4B1A70FFF79B
:10E770002BF907E09C43444B484A1B7834609B00CC
:10E780009B58984702B01CBC90469946A246F0BDE3
:10E790005869C6E71B68002B00D083E702223A4B7A
:10E7A000381C1A70FFF7DEF8021EEBD0112812D0C9
:10E7B0004B461B789900CB1849469B00CD18E96859
:10E7C000281C4C006418A400C5E703222E4B1A70C5
:10E7D000FFF73EFCD6E708231C433460D2E72979D3
:10E7E00004293DD053464046294C5B6824685A00B2
:10E7F000D2186B690094274C920048440C3014598D
:10E800000022A0474B4601201A78494693009B18E6
:10E810009B004B441F71DF80D8601F615F611F81C7
:10E820004B465B780132013BD2B24B700A2A1DD0B5
:10E830000A700022184B1A70FFF7C6F8A2E780236F
:10E840005B055B6944E74B461B789800C0184B4654
:10E8500080001D18EB68281C5C00E418A4007AE70F
:10E8600001220D4B1A70FFF7AFF88BE700230B70F6
:10E87000DFE7C04648270020602700205C270020F3
:10E8800064260020342700204C27002000100010B0
:10E8900054270020382700204D27002010170200A1
:10E8A00070B5274C82B023789800C01880002518D6
:10E8B000281CEB6829795A00D2186B69214D920007
:10E8C0002E680C300096204E96590022B047002149
:10E8D0000126227893009B189B00E3181971D980B8
:10E8E000DE6019615961198163780132013BDBB245
:10E8F000D2B263700A2A0BD022700021134E144842
:10E900003160144E01703160002B05D102B070BD32
:10E91000002222700022F0E793009A189200A418B7
:10E92000E3882B602379032B07D0042B05D0012B20
:10E93000ECD10370FFF748F8E8E7FFF71FF9E5E7C8
:10E940006426002054270020382700205827002064
:10E950004D27002030270020F0B5474680B4654D94
:10E9600004262C7882B0231CB3430ED0022810D08A
:10E9700003280AD10821604A1368194258D0022C92
:10E980004FD0032C48D0012C46D002B004BC904696
:10E99000F0BD022C45D0032C59D0012CF5D1082113
:10E9A000554A1368194237D1544F55493B780E6880
:10E9B0009A00D3189B00FA18D1888E1BB6B2D68065
:10E9C000002E6ED1D1681379480041189846101C6A
:10E9D00053694C4A890012680C3000924A4A8A589E
:10E9E000414694460022E0473A7893009B189B00EA
:10E9F000FB181E71DE80DC601E615E611E817B780B
:10EA00000132013BD2B27B700A2A66D03A700023F1
:10EA10002B70FEF7D9FFB8E78B431360FEF7D4FFE6
:10EA2000B3E73A4B3A4A1B789B009B589847ACE7B0
:10EA3000384A136801331360032B35D0022CEDD113
:10EA4000324B354A1B789B009B5898479DE708211D
:10EA5000294A13681942DFD1304B284E1A6834789E
:10EA6000571C1F6080235B051969A30098461B197A
:10EA70009B00F3181A690904501EDA881B89801854
:10EA8000C018090C01F0CAFC8742C7D32CD0231C44
:10EA900043449B00F3181B79042B20D0FFF700FFA1
:10EAA00073E7FFF729FC70E71448027893009B187E
:10EAB0009B00C418201CE268636951008A18217900
:10EAC000104C920024680C3000940F4C14590D2205
:10EAD000A0472E70FEF778FF57E73E7097E70123B7
:10EAE0002B70FEF771FF50E70D4B1B68002BCED14A
:10EAF00094E7C0464D2700204827002064260020C8
:10EB00003027002054270020382700204C270020E1
:10EB1000FC16020058270020101702006027002072
:10EB20003427002010B500202C2400220121464B60
:10EB300018551434185502341A5302341A53103429
:10EB4000185502341A530234D96018761962596381
:10EB50009964D9651A705A701A71DA801A615A610B
:10EB60001A815A835A629A629A83DA859A63DA63BF
:10EB70001A86DA641A651A665A661A5310341855DA
:10EB800002341A5302341A531034185502341A53EB
:10EB90000634195104341A5104341A510C3C1A53D6
:10EBA0001034185502341A530634195104341A51CA
:10EBB00004341A510C3C1A531034185502341A53A9
:10EBC0000634195104341A5104341A510C3C1A53A6
:10EBD00010341855BA201A52063019501967C3312B
:10EBE0005A5004315A500C395A525A679A67174B87
:10EBF0001A80174B5869431C22D080235B05196982
:10EC00000904090C01F00AFC80235B051B6902382A
:10EC10001B041B0C58430F4B0021186000230E4AA5
:10EC2000002013600D4A1360138153810C4A117048
:10EC30000C4A13600C4A136004220C4B1A6010BD7E
:10EC400080235B055869DFE7642600204427002005
:10EC500000100010502700206027002038270020D7
:10EC60004D2700205827002030270020482700206B
:10EC7000F0B557464E464546E0B4344B1A68082373
:10EC8000520705D4181C1CBC90469946A246F0BDFC
:10EC9000002857D0002955D00368002B52D0802778
:10ECA0007F053A69868892B207239642EAD80F2EEA
:10ECB000E8D9C288002AE5D0254B724399461B68E3
:10ECC000041C9846234B424458690D1C9246431C31
:10ECD0003AD039690904090C01F0A0FB80225205E1
:10ECE000136901381B041B0C584307238245C9D8FC
:10ECF000B107C7D1184F033B3E88012EC2D043460F
:10ED00006B600C232E604546734314480136C118CE
:10ED10004D6025681D50A5880D81E08848816843B5
:10ED2000136911699BB21469C018013889B2A4B281
:10ED300001F004FC231C4A464343434413603E80D5
:10ED400000239FE70E239DE77869C7E74827002047
:10ED500050270020001000104427002038270020F2
:10ED600030B5114B1C680823640701D4181C30BD52
:10ED7000002806D0002A04D00368002B03D0072304
:10ED8000F4E70E23F2E7094C2568002DF7D025891A
:10ED900040686943091860896468684300198142C2
:10EDA000EDD213605160E1E74827002038270020AA
:10EDB000F0B5474680B41E4C051C246882B008207C
:10EDC000640703D402B004BC9046F0BD00292CD0E7
:10EDD000002D2AD02C680138002CF3D1154C266860
:10EDE000002EEFD06E686789B04626897743B44617
:10EDF0006668BC19A045E5D2002AE3D09445E1D36A
:10EE0000D418A445DEDB09308C07DBD10324234270
:10EE1000D8D146462642D5D1181C131C00900A1C96
:10EE20000120291CFEF774FFCCE70E20CAE7C0467C
:10EE30004827002038270020F0B5474680B41E4CF4
:10EE4000051C246882B00820640703D402B004BC07
:10EE50009046F0BD00292CD0002D2AD02C68013816
:10EE6000002CF3D1154C2668002EEFD06E68678910
:10EE7000B04626897743B4466668BC19A045E5D2FA
:10EE8000002AE3D09445E1D3D418A445DEDB093051
:10EE90008C07DBD103242342D8D146462642D5D164
:10EEA000181C131C00900A1C0420291CFEF730FFBC
:10EEB000CCE70E20CAE7C0464827002038270020AC
:10EEC000F0B54F464646C0B4254C83B025680824AB
:10EED0006D0705D4201C03B00CBC90469946F0BDCC
:10EEE000002906D0002804D00C68002C03D0072489
:10EEF000F0E70E24EEE71B4D2E68002EF7D04E688B
:10EF00002F89B4466E897E43B1466E68B0464E4640
:10EF10004644B445EBD2002AE9D09742E7D3D6184D
:10EF2000B742E4DB860701D01024D3E7032633423F
:10EF3000FAD167463E40F7D188466344191C171C36
:10EF4000814601F0FCFB42460C23126800975343B4
:10EF50004046ED580221321C4B46A847BAE7C0464E
:10EF60004827002038270020F0B54F464646C0B459
:10EF7000204A83B012680824530705D4201C03B02C
:10EF80000CBC90469946F0BD002830D00368013C87
:10EF9000002BF3D1184B1A68002AEFD01D895E8927
:10EFA0005A686E434768B618B742E7D20934BB07C0
:10EFB000E4D188468146291CB81A01F0B5FA093C0B
:10EFC0000029DBD14046291C01F0AEFA89B20029A4
:10EFD000D4D14346002BD1D04744BE42CED30022E9
:10EFE000032000924946FEF793FE041CC6E70E2458
:10EFF000C4E7C0464827002038270020074B1A687E
:10F000000823520701D4181C7047002804D0044B71
:10F010005B7803600023F6E70E23F4E7482700201F
:10F0200064260020F0B557464E464546E0B43B4CBA
:10F03000031CE27E0820002A04D01CBC904699469E
:10F04000A246F0BD002B67D001221868A12582409E
:10F05000A020ED00C0054251A94603251A68AA4622
:10F06000C132FF329200155000255A68AC46C132B9
:10F07000FF32920015509F69294A2A4D57511D7D34
:10F08000A84647465D7D3D43274FD5515D681F68C3
:10F09000A846264D57514746254D57511D7D012DF8
:10F0A00019D19F683E1CE0277F00B8464644B70050
:10F0B00066463E50DE68B5404E4685515646DD6890
:10F0C000C135FF35AD002E504E46D8689D68905131
:10F0D000A220C00015501A696160226000290DD07D
:10F0E000197F0023134A14481360144A1360C12384
:10F0F0000B4A9B00D0500220FEF79EFAA023042169
:10F10000074ADB00D15000230122E3752376A37563
:10F11000E276A376002090E7094B95E7642700206C
:10F1200000200040240500006C0500000C050000D4
:10F13000140500001C210040800002004421004012
:10F1400024170200F0B5264A041C937D1120002BE1
:10F1500000D0F0BD01259175224823499382946027
:10F160000B6005600B60938AE05C938A1F4C01334F
:10F170009BB293821E4BE0505068002801D00020C3
:10F18000E7E70027261C1D1C0130FF30947D938A81
:10F19000A34203D312E0938A834202D00B68002B70
:10F1A000F9D0938A8342F2D00F60938A9468E45C2A
:10F1B000938A01339BB293827451E7E78023918A4B
:10F1C0005B0099420AD008490B68002BFCD0012152
:10F1D0000020084B196000239375BAE70F20FAE767
:10F1E00064270020082000401C210040002000402F
:10F1F0001C0500000C200040024B987D431E9841E6
:10F20000C0B2704764270020F0B5474680B4444B35
:10F210005A68002A05D08126C224424DB600A400B7
:10F220002E51DC7D002C0DD01C7E002C1DD0002A20
:10F2300000D16EE08121C1233A4A89009B00D15060
:10F2400011200FE0D975997ED8605C761C76002974
:10F250002BD0002A0DD08121C1230020314A890002
:10F260009B00D15004BC9046F0BD18611976002A6D
:10F27000F1D12D4C2D4D22602A4A2D489046A322D3
:10F28000D2009446296806684A1E91412268C9B294
:10F29000571EBA41D2B2002E10D1002A27D1002920
:10F2A000F0D000220320DA75DCE7204A1160204A02
:10F2B000116001211B4A11605A68CAE70029F0D188
:10F2C000002A16D1D97D002917D101606246414636
:10F2D0008A585A7ED97D9142D4D80022DA759B7E15
:10F2E000002B18D001220F4B00201A60BAE700292A
:10F2F000D7D100220F20DA75B4E746466146026096
:10F300005A7E7158DE68B1545A7E0132D2B25A76B2
:10F31000DFE71120A6E70122064B00201A60A1E7D3
:10F3200064270020002000404421004024210040A8
:10F330000821004004200040064A937E002B07D19C
:10F3400005490B6005490B60054901330B60937655
:10F350007047C04664270020242100400821004057
:10F3600000200040C12210B5604B92009A5884B032
:10F3700092054DD55E4A1168002949D000211160DF
:10F380008121C2228900920099505A4B9A7E002A0C
:10F3900002D10121584A1160022269460A70902167
:10F3A0005248C9004258425069460392DA7D684685
:10F3B0000A72DA68196801920022DA751A765B68B7
:10F3C00098474E4A1368002B10D04A4B988A997D73
:10F3D00081424FD9002111609A8A9968895C9A8A82
:10F3E000013292B29A82464B404AD150454B1A683C
:10F3F000002A0BD000221A603E4B9A7E002A02D0CF
:10F4000001213A4A1160DA7D002A42D104B010BDD0
:10F41000C123364A9B00D3585B07D2D53A490B68C3
:10F42000002BCED0334BD87D00283FD10860A321DC
:10F43000C90052585A7ED97D9142C2D11A7E002A03
:10F4400041D19A7E002A02D101212B4A11608120EC
:10F45000C22226498000920088500022684601217D
:10F46000DA755A7E01700272DA68196801925B6877
:10F470009847A6E7002010600029B7D06A461070B0
:10F4800011729A689875196801925B686846984786
:10F49000ACE7002268460121DA755A7E01700272DB
:10F4A000DA68196801925B689847AFE70020086046
:10F4B000A320C000597E1258D86842545A7E0132A7
:10F4C000D2B25A76B6E7DA751A69D968DA600022DC
:10F4D0006C46587E1A765A7601322072019122705B
:10F4E000196868465B6898476BE7C0460020004093
:10F4F0002421004064270020042000401C210040FB
:10F500001C050000442100400821004010B50029DE
:10F510000DD00923002A01D1181C10BD541E224011
:10F52000FAD1826001608480C2600023F4E70E2378
:10F53000F2E7C046031C10B59C888068DA68121A8E
:10F540000420944200D210BDDA68002014401A68EA
:10F550001155DA680132DA60F5E7C04610B5846803
:10F56000C268031C0520944209D098689A8802401A
:10F570001868825C00200A709A6801329A6010BD97
:10F5800080218023184A8902D1508022D221174B32
:10F59000520289005A5040395A5001222F205A6095
:10F5A0000138C046C046C046C046C046C046C046F8
:10F5B000C046C046C046C046C046F1D19A6000234E
:10F5C0000B4A2F2013600138C046C046C046C046D3
:10F5D000C046C046C046C046C046C046C046C046FB
:10F5E000F1D1044A1370704700E100E000100140BF
:10F5F00080270020A0270020A021F0B50023474647
:10F600002B4A490080B453500431535004315350B5
:10F61000043153504C39535004315350254B1B681F
:10F62000002B35D02449002652582449244F0C6819
:10F63000141B00222402240A904602E0002D18D058
:10F640002B1C1A68A24214D8A41AB6181A7CDD69B9
:10F65000002AF3D0424699691A745A693B68002B14
:10F6600019D0101C98470028E8D000F0CBFC002DE2
:10F67000E6D1144B14491A780B789A420ED0134AEB
:10F680009B009E5080218023114A49035B00D1508A
:10F6900004BC9046F0BD081C9047CFE70132D3B2BE
:10F6A000022B01D00B70EAE700230B70E7E7C0469E
:10F6B000001001408427002004050000802700205E
:10F6C00088270020942700209527002098270020D5
:10F6D00000E100E0F0B55F4656464D464446F0B4C2
:10F6E000B54BB64A1B68B64989B0019309781378BF
:10F6F000994200D1B3E10133DBB2022B00D10023E8
:10F700001370B04A9B009B58AB4A9946019B4B44EF
:10F710001B021B0A136001230493AB4B00241B68DC
:10F720009B46AA4BD8461B781A1C0293A84B9446BA
:10F7300007931B680393A04B1B680693A54B1B788C
:10F7400005935B466646013EF2B29446FF2A4FD0CF
:10F750006246D000039A9246504401784578A94207
:10F76000F0D04A005218877801314668C9B27F1A32
:10F77000B2467E1EB741D2007F42524439401778CC
:10F78000022F0AD0032FEAD1002BE8D01C74DB69CA
:10F79000002BFBD145789846E1E75668002B25D031
:10F7A0009E421AD01F1C00E0171CFA69002AD6D00E
:10F7B0009642F9D1321C3D1CBE4200D1EBE01768E5
:10F7C000D269EA61002A06D013689A465744176046
:10F7D00045784346C3E74578C1E7DE691A1C002E29
:10F7E00000D1DDE0B046331C151CE8E70023B6E786
:10F7F0004146754A181C11606F4A069903931160BF
:10F800006946744A097D1170049A002A00D02AE1E1
:10F810005B461B1A5A1E93410025DBB20493079BDB
:10F8200000271B68039E0693634B1B689C46664B30
:10F830001B689A46674B1B780593674B019301231E
:10F840009846029B013BDBB20293FF2B00D18FE075
:10F85000069ADB0093469B44002D27D06968AB686D
:10F86000281CED696246019C8A1A1202120AA24201
:10F8700050D8D31842460360476087600274C7615E
:10F88000002E56D03168341C994204D35FE01168D1
:10F89000994263D2141CE2695B1A002AF7D1036013
:10F8A000331CC261E0611E1C002DD7D15B465A4655
:10F8B0001B7852789A42C4D0594649685A00894602
:10F8C0005946D2180133DBB20B708978D2004A4412
:10F8D00099424AD011785068331C0129E3D1037C46
:10F8E00099464946331C0029DDD191684160D368AF
:10F8F00083601469C46052698261059A002AB1D09C
:10F900004A46002142606246019C8A1A1202120A8B
:10F91000A242AED96246511A0902090A99420CD292
:10F9200042465B1A0360476087600274C761002E1D
:10F93000A8D1031C82461E1CB6E7434607604760F9
:10F9400087600374C761002EF3D000233168CB1A9F
:10F950003360031CC66182461E1CA5E7C91A1160EC
:10F960000360C261331CE0619DE75B461D70B1E737
:10F970005246154B1A60039BB34231D1049B002BB6
:10F980002ED10023134A137009B03CBC904699460F
:10F99000A246AB46F0BDDE693A1C002E00D021E73E
:10F9A00001250E4B01369D600023059600269846E2
:10F9B000151C069603E7C0468027002094270020E8
:10F9C0009527002098270020842700208C270020DE
:10F9D0009027002096270020FEFF7F0000100140A6
:10F9E000002E62D0474B48493568CC58474B484EAB
:10F9F0001B683078E21A1202120A0332904600287D
:10FA00005ED04246AA4200D22A1CA820D218120276
:10FA10003D49130AC0003B4D0B504A591B1B121B9A
:10FA20001202120A1B0203321B0A9A42A9D94B592D
:10FA30000B502F200138C046C046C046C046C046C5
:10FA4000C046C046C046C046C046C046C046F1D1CA
:10FA5000802180232F4A89025B00D15091E7002347
:10FA60009946049359E6474600250021002448465C
:10FA7000002B13D01A6882421AD8DE68801A8918BF
:10FA80001C60DF69002E07D0DD611D1C019A9E609D
:10FA90008A181202120A5A603B1EEBD11E4B1F60DD
:10FAA0000023039301330493B9E6FFF769FD68E788
:10FAB000121A1A6003930123174904930F60AEE6EC
:10FAC0008020D1274002BF00C851403FC851C0220A
:10FAD00080271048BF0252008750076001272F205F
:10FAE0000F600138C046C046C046C046C046C0464A
:10FAF000C046C046C046C046C046C046F1D1377079
:10FB00007FE7C04604050000001001408027002068
:10FB1000A027002000E100E084270020F8B54F4630
:10FB20004646C0B40326351C80460F1C141C99465B
:10FB300015400720002D03D00CBC90469946F8BD17
:10FB4000002A44D0FFF71CFD4A46224B80201A6051
:10FB5000221C214B18321E70204B62601C607B00FF
:10FB6000DB19DB00D218E260D318C0226361257074
:10FB70006570A77025726572A77225746574A77485
:10FB8000C524FF21164B40031D60164B52001D700B
:10FB9000154BA4001D70154B98501A598A433F39D4
:10FBA0000A431A51A122186040461149D2008850D8
:10FBB000C42080001C580F4A2240C0242402224343
:10FBC0001A500D4B0020CA580C4B1A60B4E7034B77
:10FBD0001A60B1E7882700208C270020902700209A
:10FBE00084270020942700209527002000E100E0D2
:10FBF00000100140FF00FFFF0405000080270020E7
:10FC000010B50B4B1B68002B0BD0002A07D0002827
:10FC100005D0036808201C7C002C04D010BD0720F0
:10FC2000FCE70820FAE759745A610020F6E7C0465D
:10FC300090270020F0B5474680B4374B1C68002C55
:10FC400008D0002806D00723042905D8181C04BCB6
:10FC50009046F0BD0823F9E74369002BFAD0002550
:10FC6000437CA846012B2FD0EFF30583DB05DB0D8A
:10FC70001025002B2CD164196378A5785E1CF6B290
:10FC8000AD1B6F1EBD416D422E402578B5421DD083
:10FC90005D00EB186568DB00ED180423002DD5D05E
:10FCA000033B2B7068601D4B1D48C358E960AB6077
:10FCB000434680212B6180236A611A4A5B00490315
:10FCC0006670D1500023C1E78846CDE70423BDE725
:10FCD000103BDEB275B2002D13DBAD08114EC035FE
:10FCE000AD00AD5903263340DB00DD402B069B0FF2
:10FCF000DBB20025012BBED00835032BBBD0083565
:10FD0000B9E70F23084D3340AC46083B9B089B00E6
:10FD100063445D680323E6E79027002004050000A4
:10FD20000010014000E100E018ED00E030B52E4A7F
:10FD3000031C12680820002A2ED0002B2CD05969F1
:10FD4000002929D000211974EFF30581C905C90DD7
:10FD50001025002923D155196A78A978541CE4B2DA
:10FD6000091B481E814149420C402978A14214D008
:10FD700051008A186968D2008C4662440420002A27
:10FD80000AD0022153601170802380210020174A7D
:10FD900049035B006C70D15030BD0420FCE7103982
:10FDA000CCB260B2002813DB8008104CC030800059
:10FDB000005903242140C900C8400106890FC9B277
:10FDC00000250129C7D008350329C4D00835C2E76A
:10FDD0000F21074821408446083989088900614479
:10FDE00048680321E6E7C0469027002000E100E0D4
:10FDF00018ED00E070B5161C0C1C8D18002A05DDEE
:10FE00002078013400F0DEF8AC42F9D1301C70BD2E
:10FE100010B50C1C201C00F0BBF80528FAD00120FE
:10FE200010BDC04630B5047885B0012C19D0022C25
:10FE300034D0002C01D005B030BD274C274D201CFC
:10FE4000291CFFF78BFB002823D0A268E3689A42A5
:10FE5000F1D1032302AA1370214B101C1B68984791
:10FE6000E9E743681F4D1978281CFFF763FB00285A
:10FE700022D1AA68EB689B1A012B25D0A968AA8811
:10FE8000EB685B1A9A42D6D301211748FFF7BCF9F9
:10FE9000D1E7281C0121FFF755F9D6E702AB1C700A
:10FEA000C3680121104801930393FFF7ADF90C4B90
:10FEB00002A81B689847BEE702AB1C70084B039072
:10FEC0001B6802A89847D9E702AB1870044B02A838
:10FED0001B689847D2E7C046B0270020A42700201F
:10FEE000A8270020C0270020AC270020F0B51E1C4A
:10FEF000214B051C89B00C1C1A600720002906D074
:10FF00008A881E480968FFF701FB002801D009B064
:10FF1000F0BDA168A2891A48FFF7F8FA0028F6D1C7
:10FF20006A46184B684692CB92C292CB92C212CBD1
:10FF300012C2AB6806932B7906775A1E934103755C
:10FF40006B790E22591E8B415B421A404275EB7849
:10FF50000D490293AB7803932B7801936B78009350
:10FF6000FFF760F80028D2D1FFF7E6F90121074832
:10FF7000FFF74AF9CBE7C046A8270020C02700209A
:10FF8000B02700204417020025FE0100AC27002006
:10FF900038B50A4C051CA168A288E3685B1A9A422E
:10FFA00004D0201C291CFFF7D9FA38BD04480121D0
:10FFB000FFF72AF90028F4D00520F6E7C027002033
:10FFC000AC27002070B50D4D011C281CFFF7B2FABC
:10FFD000041E01D0201C70BDFFF70EF90028F9D1D6
:10FFE000074E281C311CFFF7B9FA0028F2D1301C4B
:10FFF0000121FFF7A7F8041CECE7C046B02700205A
:020000022000DC
:10000000A4270020002300B585B001AA906000213C
:1000100003481380536000F005F805B000BDC046EA
:1000200001400000BFF34F8F034A044BDA60BFF377
:100030004F8FC046FDE7C0460400FA0500ED00E022
:1000400008B50378022B02D0012B00D008BD406810
:10005000FFF7D8FFFAE7C04670B50E4C88B023789A
:100060000020002B14D101A8021C0B4B62CB62C2F2
:100070000A4B012504930A4B04A9069380239B0095
:100080000793FE3B074AFF3B0595FFF72FFF2570BF
:1000900008B070BDD027002064170200D4290020CA
:1000A000D4270020410002000FB400B583B004A99A
:1000B00001C9019100F04CFB03B008BC04B0184723
:1000C00052DF704710DF704760DF704761DF7047B5
:1000D00008B5FFF7A7FF08BDF0B557464E464546A1
:1000E000E0B42F4B2F4E1D6899466B425D412E4B5D
:1000F000B2461C68984663425C412C4F82B0EDB218
:10010000E4B2002D08D0002C23D002B01CBC9046D5
:100110009946A246F0BD012401A8FFF7D1FF0528AA
:100120002DD0002826D0FFF76DFF002CF3D16A46B2
:100130001C4B01A91B8893801C4B1C68201CFFF7DB
:10014000C5FF0528E7D000280ED0FFF75BFF00248D
:10015000D7E73C68338801A9201C0B80FFF7B6FF66
:100160000528D2D00028F0D14346201C1B689847B0
:100170000024C6E74B4601981B689847D5E7002C3A
:10018000C3D153466A461B8801A99380074B0125BA
:100190001C68201CFFF79AFF0528D4D1B5E7C0469C
:1001A000DC290020D6290020E0290020D8290020C1
:1001B00038B5041C0720002901D08D0700D038BDB8
:1001C000124801601249201C0A80124A1249136029
:1001D000FFF778FF0028F2D10122104B1A70C522D8
:1001E0000F4B92009A58520207D50E4A50680028C9
:1001F00005D18022D2031A60E1E70B48DFE78021B6
:100200001368C9030B4313600020D8E7D8290020E6
:10021000D6290020E4290020D1000200D5290020A1
:1002200000E100E0F429002002200000002803D0B3
:10023000024B1860002070470E20FCE7E0290020E8
:10024000002803D0024B1860002070470E20FCE706
:10025000DC29002008B5094B1B68002B06D0984705
:10026000002800D108BDFFF7CDFEFBE7044B1B784B
:10027000002BF7D0FFF730FFF4E7C046E429002059
:10028000D529002070B5141C051C0E1C101C002163
:100290001422FAF7BDFF002301222361237B228071
:1002A0009343237326726572002D01D00123A3723C
:1002B000002070BD0020034B82B00193019B02B06F
:1002C0007047C046B01E002000B5054B83B00193B7
:1002D000019B69460093FFF7F7FE03B000BDC046DF
:1002E000B01E0020304B1B78012B00D070472F4BE5
:1002F0001B681B07FAD1F0222D4B1B68134027D136
:100300002C4B1B68134229D0284B1B681B07EDD1CF
:10031000F022274B1B681340402B32D0244B1A6825
:10032000F0231340A02B01D0D02BDFD1214B1A6832
:10033000F0231A42DAD1204A1368012B04D01F4B54
:1003400013601368012BFCD1C0221D4B1A60CDE74E
:10035000102B0FD1174B1B681342D9D1194A1A4BD6
:100360001A608022194B12021A600F4B1B78012B66
:10037000CAD0BBE7302BCBD10E4B1B681342C7D181
:10038000ECE70C4B1B681342C8D1C123802201212A
:10039000DB00D205D150044B1B78012BA6D1034BB7
:1003A0001B681B07BAD0A1E7E00F00F0E40F00F0D4
:1003B000E80F00F0EC0F00F000EC06407593000031
:1003C00014EC0640DFFF07C004050040186C004035
:1003D00003210A4802680A430260094802680A4386
:1003E00002600849084A094B9B1A03DD043BC858C0
:1003F000D050FBDCFFF776FFFAF792FE24050040B1
:100400005405004010180200B01E0020241F0020D8
:10041000FEE7FEE7FEE7FEE7FEE7FEE70022430811
:100420008B4274D303098B425FD3030A8B4244D3BC
:10043000030B8B4228D3030C8B420DD3FF220902FE
:1004400012BA030C8B4202D31212090265D0030BBD
:100450008B4219D300E0090AC30B8B4201D3CB03B3
:10046000C01A5241830B8B4201D38B03C01A5241F5
:10047000430B8B4201D34B03C01A5241030B8B42F7
:1004800001D30B03C01A5241C30A8B4201D3CB02E2
:10049000C01A5241830A8B4201D38B02C01A5241C7
:1004A000430A8B4201D34B02C01A5241030A8B42CA
:1004B00001D30B02C01A5241CDD2C3098B4201D3E2
:1004C000CB01C01A524183098B4201D38B01C01A60
:1004D000524143098B4201D34B01C01A52410309D7
:1004E0008B4201D30B01C01A5241C3088B4201D386
:1004F000CB00C01A524183088B4201D38B00C01A33
:10050000524143088B4201D34B00C01A5241411A59
:1005100000D20146524110467047FFE701B5002066
:1005200000F0FCF802BDC0460029F7D003B5FFF784
:1005300075FF0EBC4243891A1847C04603460B4359
:100540007FD4002243088B4274D303098B425FD3CC
:10055000030A8B4244D3030B8B4228D3030C8B42F8
:100560000DD3FF22090212BA030C8B4202D31212DE
:10057000090265D0030B8B4219D300E0090AC30BB3
:100580008B4201D3CB03C01A5241830B8B4201D360
:100590008B03C01A5241430B8B4201D34B03C01A49
:1005A0005241030B8B4201D30B03C01A5241C30AC1
:1005B0008B4201D3CB02C01A5241830A8B4201D332
:1005C0008B02C01A5241430A8B4201D34B02C01A1C
:1005D0005241030A8B4201D30B02C01A5241CDD2C1
:1005E000C3098B4201D3CB01C01A524183098B420C
:1005F00001D38B01C01A524143098B4201D34B01F5
:10060000C01A524103098B4201D30B01C01A524157
:10061000C3088B4201D3CB00C01A524183088B42DE
:1006200001D38B00C01A524143088B4201D34B00C7
:10063000C01A5241411A00D2014652411046704739
:100640005DE0CA0F00D04942031000D3404253403E
:1006500000229C4603098B422DD3030A8B4212D3FE
:10066000FC22890112BA030A8B420CD38901921130
:100670008B4208D3890192118B4204D389013AD06D
:10068000921100E08909C3098B4201D3CB01C01A42
:10069000524183098B4201D38B01C01A5241430955
:1006A0008B4201D34B01C01A524103098B4201D343
:1006B0000B01C01A5241C3088B4201D3CB00C01AB0
:1006C000524183088B4201D38B00C01A5241D9D2C8
:1006D00043088B4201D34B00C01A5241411A00D249
:1006E0000146634652415B10104601D34042002B45
:1006F00000D54942704763465B1000D3404201B5C4
:10070000002000F00BF802BD0029F8D003B5FFF778
:1007100015FF0EBC4243891A1847C0467047C046B1
:1007200030B50024944208D0035D651C0C5DA342E3
:1007300001D0181B02E02C1CF4E7002030BD002380
:1007400010B5934203D0CC5CC4540133F9E710BD1B
:10075000094B70B51C68061C0D1C002C05D0A36944
:10076000002B02D1201C00F04BF8321C2B1C201C4B
:10077000A16800F057F970BD101F002008B50249AC
:1007800000F0AEF808BDC04605130200002310B506
:10079000041C03604360836081814366C2810361FE
:1007A00043618361191C08225C30FAF731FD054B67
:1007B00024626362044BA362044BE362044B236331
:1007C00010BDC046750F02009D0F0200D50F02003C
:1007D0000110020070B568254B1E5D430E1C291CDC
:1007E000743100F09FF8041E08D000212A1C01601B
:1007F00046600C30A0606832FAF70AFD201C70BD1C
:10080000836913B5002B28D18364C3640365134B3C
:10081000134A1B6882620193984201D101238361CC
:10082000041C00F01FF86060201C00F01BF8A060A2
:10083000201C00F017F80421E06000226068FFF738
:10084000A5FFA06809210122FFF7A0FFE06812219F
:100850000222FFF79BFF0123A36113BDC015020015
:100860007D070200F8B51D4B061C1D68AB69002B07
:1008700002D1281CFFF7C4FF4835AC686B68013B08
:1008800005D40C22A75E002F10D06834F7E72B6840
:10089000002B06D1301C0421FFF79CFF28600028A4
:1008A00001D02D68E9E70C23336016E00123201CFA
:1008B0005B42E3810233A38167662760A7606760BC
:1008C00027616761A7615C30391C0822FAF7A0FC38
:1008D000201C6763A763A764E764F8BDC015020026
:1008E000F7B5041C071C002601914834002C16D0D3
:1008F0006368A5680093009B013B00930DD4AB890E
:10090000012B08D90E22AB5E013304D0381C291C00
:10091000019B984706436835EDE72468E6E7301CFD
:10092000FEBD0000032370B5CC1C9C430834051C9D
:100930000C2C01D20C2405E0002C03DA0C2300203F
:100940002B6042E08C42F9D3204A1368101C191C1A
:10095000002913D00A68121B0DD40B2A02D90A6091
:100960008B181FE08B4202D15A6802601BE04A6874
:100970005A600B1C17E00B1C4968E9E7144E3368FA
:10098000002B03D1281C00F0E3FA3060281C211C46
:1009900000F0DEFA031C421CD0D00322C61C964392
:1009A00086420AD11C60181C07210B301A1D88438F
:1009B000821A0AD05142995007E0311A281C00F0DF
:1009C000C7FA431CBAD0331CECE770BDEC290020F9
:1009D000E8290020936810B5013B9360002B05DAED
:1009E0009469A34208DBCBB20A2B05D01368581CCC
:1009F00010601970C8B201E000F008FB10BDF8B536
:100A0000061C0F1C141CD518AC4208D02178301CD1
:100A10003A1CFFF7DFFF0134431CF5D100E0002052
:100A2000F8BD0000F0B59FB0061C0F1C02920593A4
:100A3000002804D08369002B01D1FFF7E1FE794B38
:100A40009F4201D1776808E0774B9F4201D1B76898
:100A500003E0764B9F4200D1F768BB891B070AD59C
:100A60003B69002B07D0002306AD6B6120336B760A
:100A70001033AB763DE0301C391C00F033FB00280E
:100A8000F1D001204042CAE0059A111D126805917B
:100A9000002A7EDB0992013423782E2B00D189E0D5
:100AA00021786348032200F0C5FC002808D0604B81
:100AB0000134C01A40238340181C2B681843286057
:100AC0002178631C5B4806220293297600F0B2FC71
