:020000021000EC
:10B000000080002065DF0100A5DF0100A7DF01004F
:10B010000000000000000000000000000000000030
:10B02000000000000000000000000000A9DF010097
:10B030000000000000000000ABDF0100ADDF0100F8
:10B04000AFDF0100AFDF0100A9CF0100AFDF0100DA
:10B05000AFDF01000000000099C90100AFDF01006F
:10B06000AFDF0100AFDF0100AFDF0100AFDF0100A4
:10B07000AFDF0100AFDF0100AFDF0100AFDF010094
:10B08000AFDF010055D20100AFDF0100AFDF0100EB
:10B0900031D30100AFDF0100E9DD0100AFDF0100C6
:10B0A000AFDF0100AFDF0100000000000000000082
:10B0B0000000000000000000000000000000000090
:10B0C00010B5064C2378002B07D1054B002B02D07E
:10B0D000044800E000BF0123237010BD241F00209E
:10B0E00000000000F4F0010008B5084B002B03D06D
:10B0F0000748084900E000BF07480368002B00D15B
:10B1000008BD064B002BFBD09847F9E70000000074
:10B11000F4F00100281F0020201F00200000000084
:10B12000164B002B00D1144B9D46402292029A1AD6
:10B13000924600218B460F461348144A121A00F01B
:10B1400067F80F4B002B00D098470E4B002B00D018
:10B1500098470020002104000D000D48002802D06F
:10B160000C4800E000BF00F02DF82000290000F09E
:10B170005FF800F011F8C0460000080000800020D1
:10B180000000000000000000241F002054260020C2
:10B190000000000000000000084B10B5041C002B4C
:10B1A00002D0002100E000BF054B1868836A002B25
:10B1B00000D09847201C00F033F8C0460000000083
:10B1C00074EF01000E4B70B500251E1C0D4CE41AE7
:10B1D000A410A54204D0AB00F35898470135F8E716
:10B1E00003F0BAFE084B00251E1C084CE41AA410FC
:10B1F000A54204D0AB00F35898470135F8E770BD7D
:10B20000181F0020181F0020181F00201C1F0020DE
:10B21000031C8218934202D019700133FAE7704779
:10B22000FEE7C04648DF70478ADF70477047C04678
:10B2300000B5002087B00321314A002302F09CFAB8
:10B24000002859D102F0D2FC2E490422684602F0AF
:10B2500050FF68462C494822002302F073FD002865
:10B2600047D10120002101AA02F0D6FD00283DD1DE
:10B27000264802F0E9FD002835D101A802F0EEFDD4
:10B2800000282DD1224802F09BFD002825D121481D
:10B2900002F0A0FD00281DD100F09EFAFC231E48FC
:10B2A000027813400370A0230381503B43810023A5
:10B2B00043608381FFF7B8FF002808D1FFF7B2FF92
:10B2C000002801D002F068FC00F0A2FAF6E702F0D4
:10B2D00063FCF3E702F060FCDEE702F05DFCD6E71A
:10B2E00002F05AFCCEE702F057FCC6E702F054FC2D
:10B2F000BEE702F051FCB4E702F04EFCA2E7C04604
:10B30000981F002078EF0100501F0020E01C002053
:10B3100011B601002DB20100401F002000B583B01E
:10B320007A280AD07B2806D111785378090219436C
:10B330000E4802F083FC03B000BD0D4B1B78002BC0
:10B34000F9D001AA0B0A13700A4B51701B787B20AD
:10B350005900CB1808499B00CB181B89190A91701A
:10B36000D370111C042200F0F5F8E4E77CEF010033
:10B37000D1200020D0200020E825002074DF704775
:10B38000F0B556465F464D464446F0B43E4B3F4A04
:10B390001B7883B09A46D37A002B06D1D37D002B3D
:10B3A00057D002240123012102E0012400230021BF
:10B3B0005800C3189B00D3189B7A35486700037068
:10B3C000804634483F19037084463348BF00D7197C
:10B3D00001708146F87A1E1C83465D460837081CBA
:10B3E000002D27D1022C03D02324145D002C13D16F
:10B3F00062461370244B187043461E704B461970FA
:10B40000824502D00122254B1A7003B03CBC904605
:10B410009946A246AB46F0BD2224145D5AB267B2EB
:10B42000BA4201DA231C022072B2BA42E0DD261CC5
:10B430000221DDE7BD785FB201956DB2AB46AF4248
:10B4400001DA201C019B77B25F45CBDD211C019EF8
:10B45000C8E72333D35C002B0CD02223D35C0C4AE7
:10B46000022013700B4A137002230B4A1370064A12
:10B470001370C5E78121074A1170054A1370064A07
:10B480001370014A1370C0E7D0200020E825002087
:10B49000D2200020171F0020D3200020F4200020FD
:10B4A00038B5174A1748D17A0378002909D0164CC5
:10B4B00021780139C9B22170002902D1013BD17232
:10B4C000DBB2D17D002909D00F4C61780139C9B2B6
:10B4D0006170002902D1013BD175DBB22324115DDB
:10B4E000002909D0084DA9780139C9B2A9700029ED
:10B4F00002D1013B1155DBB20370FFF741FF38BDAC
:10B50000E8250020D1200020141F002008B50028C5
:10B5100010D008280DD10B4802F090FB0A4B1B7885
:10B520005800C31809489B00181801F0D7F90028E3
:10B5300004D108BD064802F081FBFAE702F02CFBBB
:10B54000F7E7C046C0EF0100D0200020E82500202A
:10B55000ACEF0100F0B54F46464600238046C0B42C
:10B56000A1B009AC274812AD09936360A360E36002
:10B5700023616361A361E36123628946171C02F0C2
:10B580005DFB281C00213822FFF742FE434606AE31
:10B59000002B25D143463370FF2303227370553BA4
:10B5A000B37003AB18499A80062219806B6200239E
:10B5B000EA70053A23706270A37023732376281C07
:10B5C00000930021221C114B059600F081FF0028FA
:10B5D00001D002F0E1FA21B00CBC90469946F0BDD2
:10B5E000802342465B42134333701B20FF233A1CE7
:10B5F00073706844553B49460337B37002F079FDD8
:10B60000FAB2CEE7E0EF0100AA5500000DB5010047
:10B61000F0B55F4656464D464446F0B4038885B0C3
:10B620001D2B07D10622037CC47BDF08057A13405B
:10B63000062B06D005B03CBC90469946A246AB46C8
:10B64000F0BD5E4B061C9846191C033A02A802F096
:10B6500050FD43460322191D03A802F04AFD311C88
:10B6600002A81131032202F035FD0028E2D1311C7D
:10B6700003A81531032202F02DFD0028DAD1337D15
:10B68000DA1CBA42D6D1307E42B2002A4FDB0923FF
:10B690009C46B44463460093737EB67E1B021E43F1
:10B6A00001960026464F0098391C062202F012FD32
:10B6B000002877D0731CDEB20C37032EF3D1414B38
:10B6C00098461B78022B47D800223F4B91469A465A
:10B6D000DB7A002B06D05346DB7D5A4253410222CF
:10B6E000D31A99464B465B004B449B001F1C5344A6
:10B6F0009B4608235B441E1C9C705B460099581CAB
:10B70000062202F0F6FC52460123D5556A46F37034
:10B710005B46928849461A81434642461B7801336C
:10B7200013700A22294B5A54FFF72AFE82E7F27E51
:10B73000347F1202224312B2757EB17E563200D09F
:10B7400078E77F221040321C2D02093B29431D322D
:10B75000DBB2FFF7E3FD6DE700221D4B9A5663B2A3
:10B760009A4200DB66E71B4B00999A461878164B05
:10B77000062299460C235843484484720130984667
:10B7800002F0B7FC53461A784346494653435D548A
:10B79000694689884B4419810A210C4B9954FFF75B
:10B7A000EFFD47E70C237343074AD3180A229C7224
:10B7B000064B9A55FFF7E4FD3CE7C046A4EF0100B5
:10B7C000E9250020D1200020E8250020141F0020BA
:10B7D000D2200020D320002008B50A4801210A4ABF
:10B7E00002F03CF800280AD1802108480902002212
:10B7F00002F04EF8002801D002F0CEF908BD02F0A8
:10B80000CBF9F1E710F00100A1B40100D420002031
:10B8100070B52F4DA0B02C782E4B002C04D11B7886
:10B82000002B1AD120B070BD1C78002C49D02A4BB7
:10B830001A78002AF6D000241C70FFF79FFD2C70A8
:10B8400000283BD1254802F0F9F9012000F0E4FE80
:10B850000028E7D002F0A0F9E4E712AE20480994EE
:10B860000A940B940C940D940E940F9410941194CC
:10B8700002F0E4F900213822301CFFF7C9FCFF2355
:10B8800006AA5370553B9370147005920322154914
:10B8900003AB19809A807362012309AD0332F27001
:10B8A0006B702C70AC702C732C76301C00940021C3
:10B8B0002A1C0D4B00F00CFE0028C3D002F06CF9DE
:10B8C000C0E7FFF75BFD2C700028ABD0C2E7C04695
:10B8D00044260020D1200020F4200020F8EF0100B1
:10B8E000E0EF0100AA5500000DB5010071DF7047BF
:10B8F00072DF704779DF70477DDF704765DF704723
:10B90000F0B50488051C83B00720012C04D01488EE
:10B91000A01C984202D90C2003B0F0BD2E78012E55
:10B9200004D16E7802363619B342F4D3023B1C1BA5
:10B930006B460F1CA4B20818991D161CDC80FFF77B
:10B94000DBFF0028E8D12B78022B18D0012B11D077
:10B95000231C0821FE2BDED83288581CB8543288AC
:10B960000020013292B23280B954328801329B18E1
:10B970003380D1E76B789C42EBD2231CE9E76B461E
:10B98000DB8809219C42E5D2231CE2E7F0B55F4643
:10B99000564644464D46F0B485B09A460EAB80CB31
:10B9A000061C1B8800919B463B88904601930388A8
:10B9B000002B5BD00023994602AB0024DD1C03E082
:10B9C00033880134A3422ADD7368A1009C46042217
:10B9D000614403A802F08DFB03A8291C0022FFF795
:10B9E0008DFF002826D12B784345E9D14B46002B0B
:10B9F00027D043463A88D3185B4539DC524403A824
:10BA0000291CFFF77BFF002814D13B882A780134DA
:10BA1000D3183B80012399463388A342D4DC4B469C
:10BA2000002B23D03B88019A013B9B1A9BB20C2030
:10BA3000FF2B18D905B03CBC90469946A246AB46B0
:10BA4000F0BD42463B889A1802325A4510DC6946DE
:10BA50005246013309789BB23B80D1543A88013277
:10BA600092B23A80CAE7111C524653540020E1E7D3
:10BA70000C20DFE7F0B55F4656464D464446031CB2
:10BA80000020F0B417881080586B87B0002800D1D0
:10BA90006FE10478022F18D9022011250870108850
:10BAA000013080B210800D541088013080B21080B7
:10BAB0000C5414880134A4B21480186B002800D1EF
:10BAC00077E0251C1235BD4207D90C2007B03CBCDD
:10BAD00090469946A246AB46F0BD11250D551488F7
:10BAE000013D0134A4B214800D5514880134A4B270
:10BAF0001480C57B0D5514880134A4B21480857B55
:10BB00000D5514880134A4B21480457B0D5514885A
:10BB10000134A4B21480057B0D5514880134A4B2FD
:10BB20001480C57A0D5514880134A4B21480857A26
:10BB30000D5514880134A4B21480457A0D5514882B
:10BB40000134A4B21480057A0D5514880134A4B2CE
:10BB50001480C5790D5514880134A4B214808579F8
:10BB60000D5514880134A4B2148045790D551488FC
:10BB70000134A4B2148005790D5514880134A4B29F
:10BB80001480C5780D5514880134A4B214808578CA
:10BB90000D5514880134A4B2148045780D551488CD
:10BBA0000134A4B214800078085514880134A4B27A
:10BBB00014802E201D5C002D00D0DCE01E1C2D23E7
:10BBC000F35C151C8846002B00D0F7E0B378002BFF
:10BBD00000D024E1F378002B16D0E21CBA4200D941
:10BBE00073E70222414640460A5501212A88013264
:10BBF00092B22A8081542A88013292B22A808354D8
:10BC00002C880134A4B22C807368002B16D01A78CB
:10BC1000E31CBB4200D958E70223414640460B557E
:10BC20000A212B8801339BB22B80C1542B8801330E
:10BC30009BB22B80C2542B8801332B803389002B7D
:10BC400000D010E1338A002B00D076E1338B002B3B
:10BC500000D08BE1336A002B4AD02A880C20911D3A
:10BC6000B94200D932E7198805388B46052900D832
:10BC70002CE7CC4C5C44A4B2A146CB4CA446A145D5
:10BC800000D823E75C88A246052C00D81EE7C54CE7
:10BC90006946A146D1444C46CC81CC89644500D844
:10BCA00014E7C24CA34504D0A24502D0D34500D925
:10BCB0000CE70521404681542A880D31013292B2A9
:10BCC0002A8081542A88013292B22A8019884244FB
:10BCD0001170090A51702A88023292B22A8059885A
:10BCE000131C43441970090A59702B8802332B80A6
:10BCF000746A002C32D0A2882988131D5B180C208E
:10BD0000BB4200D9E2E6931CFE2B00D9DEE6434697
:10BD100003325A54FF2241462B8801339BB22B80B9
:10BD2000CA542B8801339BB22B80228843441A705B
:10BD3000120A5A702B8802339BB22B80A288002AE9
:10BD40000CD0A1680538002900D1BFE64344181C77
:10BD500002F0CFF92A88A388D3182B802C23F35C18
:10BD6000002B00D098E03378002B00D0DEE00020DC
:10BD7000ACE60024A1E6E61C2238BE4200D9A5E6C6
:10BD800002260E551C241088013080B210800C54FD
:10BD90001088013080B21080022D00D10FE100D850
:10BDA00006E1032D00D108E1042D00D0F7E00324C3
:10BDB0000C5414880134A4B21480FFE609340C201A
:10BDC000BC4200D982E604A8FFF790FD002800D00D
:10BDD0007CE6414608222B88CA542B881332013353
:10BDE0009BB22B80CA5402AB9C4609212888153A85
:10BDF000013080B228806144404402F07AF92B88F7
:10BE000002AA0633127A9BB22B80002A00D00122AC
:10BE10004146CA542C880134A4B22C80D6E604349E
:10BE20000C20BC4200D951E604A8FFF763FD0028AE
:10BE300000D04BE6032241462B88CA542B88163289
:10BE400001339BB22B80CA542B8802AA01339BB2C8
:10BE500012892B8043441A70120A5A702C880234BB
:10BE6000A4B22C80B6E6341C083400950197201C3F
:10BE7000022102224346FFF789FD002800D025E673
:10BE800000950197201C062110224346FFF77EFDF6
:10BE9000002800D01AE6D5E6B46A002C00D17EE076
:10BEA000A3880233FE2B00D90FE6002291461632FA
:10BEB00092461632288893460BE04B465C00B36AE4
:10BEC0004C449C46A4006444A3880233FE2B00D952
:10BED000FBE542465146013313542B8801339BB294
:10BEE0002B80D1542B8801339BB22B802288434472
:10BEF0001A70120A5A702888023080B22880A288EC
:10BF0000002A0AD0A168002949D0404402F0F1F883
:10BF10002888A388C01880B228804B460133DBB242
:10BF200099465B46F35C4B45C7D81CE7301C41463D
:10BF30002A1C3B1CFFF7E4FCC8E5341C10340095B8
:10BF40000197201C032102224346FFF71FFD002812
:10BF500000D0BBE500950197201C07211022434625
:10BF6000FFF714FD002800D0B0E56FE6341C18344C
:10BF700000950197201C142102224346FFF706FD7D
:10BF8000002800D0A2E500950197201C1521102261
:10BF90004346FFF7FBFC002800D097E55AE6072050
:10BFA00094E5C0467FF3FFFF7DF30000FFFF000034
:10BFB000012DF4D100240C54FBE60E54F9E60124C3
:10BFC0000C54F6E6F0B54E46574645461F23E0B4FE
:10BFD00096B002AA041C0E1CD381002800D171E087
:10BFE000C3785B0767D5002302AA9381436B002BBC
:10BFF00000D13EE11B78022206ADAB70032303277C
:10C00000052104202A700F326A7002AA9381226BE4
:10C01000002A3AD0112306ADEB55013B2B54D37BBC
:10C020006B54907B4B1CE854507B8B1CE854107B6A
:10C03000CB1CE854D07A0B1DE854907A4B1DE85481
:10C04000507A8B1DE854107ACB1DE854D079013317
:10C05000E85490790133E85450790133E854107969
:10C060000133E854D0780133E85490780133E85430
:10C07000013302A883815078E854013302A88381F8
:10C080001278EA54013383819BB22E22A25C002AEB
:10C0900000D0F1E12D22A25C002A00D011E1A278AB
:10C0A000002A00D03DE1E278002A35D0D91C1F29B2
:10C0B00025D90C2000E0072016B01CBC90469946FC
:10C0C000A246F0BD002502AB9881002E00D1D4E03D
:10C0D000F378002BEFD102AA94460E236344301C60
:10C0E0000EA91A1CFFF7C6FC0028E5D102AB9B7B0A
:10C0F0000EAA02A9097B281CFFF7FAFBDCE7022045
:10C10000012706ADE854581C02339BB280B22F546D
:10C11000EA548BB202AA93816268002A0FD0107889
:10C12000DA1C1F2AC5D802210A2706ADE954591C7A
:10C1300002339BB289B26F54E85402AB9A812389CF
:10C14000002B00D09EE0238A002B00D00AE1238B35
:10C15000002B00D025E1236A002B43D002AA92894C
:10C160000C20911D1F29A7D8188882465546072004
:10C17000052DA1D9D24D5544ADB2AC46D14DA846FE
:10C18000AC4599D95D88A946052D00D894E7CC4DDA
:10C190006F46AC46CC446546FD81FD89454500D8D7
:10C1A0008AE7C94DAA4504D0A94502D0CA4500D99D
:10C1B00082E70520122706ADA854501C80B22F54E8
:10C1C000901C80B202AFB8811F88281807703F0A00
:10C1D000477004325B8892B2AD182B701B0A6B70EB
:10C1E00002AB9981676A002F2FD0BB880C20991C65
:10C1F00002AB9B899A1C55181F2D00D95CE7FE29BC
:10C2000000D959E706AD0131E954591C89B2F33020
:10C21000685492B202A98A813988AA18043311702D
:10C2200098B2090A02AB51709881BA88002A0CD0E2
:10C23000B968002900D13EE7281801F05AFF02AB87
:10C24000BA889B89D31802AA93812C23E15C002928
:10C2500000D0C5E006AD2378002B00D135E7201CC7
:10C26000291C05AA1F23FFF74BFB002800D12CE750
:10C2700022E7002702210120C9E602ABDE8100226D
:10C28000002336E705AB271C00931F23083706ADB4
:10C2900098460193381C022102222B1CFFF776FBE3
:10C2A000002800D008E705AB00934346381C0193F3
:10C2B000062110222B1CFFF769FB002800D0FBE6AB
:10C2C00041E709330C201F2B00D9F5E60EA8FFF734
:10C2D0000DFB002800D0EFE6082202AB9B8906ADDB
:10C2E000EA545A1C023398B21B2102AB9C4692B20C
:10C2F000A9541631988161440622281801F0F9FEEC
:10C30000302002AB02A99B89091809789A1D92B2C4
:10C31000002900D001210733A9549BB202AA9381BE
:10C32000BDE604330C201F2B00D9C5E60EA8FFF78D
:10C33000E1FA002800D0BFE60322192102AB9B8955
:10C3400006ADEA545A1C92B2A95402AA118E9A1C44
:10C3500092B2AD18043329709BB2090A02AA69701F
:10C360009381A0E605AB271C00931F23103706AD71
:10C3700098460193381C032102222B1CFFF706FB71
:10C38000002800D098E605AB00934346381C019383
:10C39000072110222B1CFFF7F9FA002800D08BE6AA
:10C3A000D5E605AB271C00931F23183706AD98462A
:10C3B0000193381C142102222B1CFFF7E7FA0028F6
:10C3C00000D079E605AB00934346381C0193152154
:10C3D00010222B1CFFF7DAFA002800D06CE6BAE630
:10C3E000A76A002F00D166E6BB880233FE2B00D976
:10C3F0005FE602AA908900229046163291461632D4
:10C40000924606AD4A4601332B54431C9BB2EA5474
:10C41000831C9BB202AA93813A88EB181A700430ED
:10C42000120A5A7080B202AB9881BA88002A0FD0E3
:10C43000B968002900D13EE6281801F05AFE02AB87
:10C440009B89B888C01880B202AB98815346E15CE2
:10C4500043460133DBB298468B4200D3FBE64346AA
:10C460005F00A36A47449C46BF006744BB88023311
:10C47000FE2BC7D90C201FE602201C27591C06AD35
:10C4800089B2E8546F54191889B282420CD010D97D
:10C49000032A0CD0042A00D00DE603226A54033389
:10C4A0009BB202AA9381F5E501226A54F7E768542A
:10C4B000F5E7012A00D0FEE500226D182A70EEE7AC
:10C4C0007FF3FFFF7DF30000FFFF000073DF704785
:10C4D000F8B5051C0E20002D00D17DE0002A00D10A
:10C4E0007AE000200F1C3D4908703D490B60069919
:10C4F0003C4B19603C490B1C13CA13C313CA13C32A
:10C5000013CA13C3002107223848FEF781FE384BB7
:10C51000384A394E1A60394A00219A60301C382254
:10C52000FEF776FE2B782A1C3370AB781032B3708E
:10C53000EB78F3706B787370331C103303CA03C34A
:10C54000331C103A083303CA03C3331C08321833B0
:10C5500003CA03C36B6A002B11D0294B294C7362A9
:10C56000696A9C600A881A8088889880002806D0AA
:10C5700000238A68D25CE25401338342F9D1AB6A6A
:10C58000002B14D0204B2148B362A96A98608C8894
:10C590009C800A881A800023002C05D08A68D25C0F
:10C5A000C2540133A342F9D12C23EA5CF2542B6A22
:10C5B000002B06D0164B33622A6A518859801288A4
:10C5C0001A806B68002B03D0124B73606B6873602A
:10C5D000301C391CFFF7F6FCF8BDC046442600208D
:10C5E000042100202C2100203821002030210020AF
:10C5F000802100205C2100200C260020B02100209A
:10C60000F82000200C210020D821002090210020BB
:10C61000D02100207C210020002370B5A44C86B0DE
:10C6200020706846009300F00BFB082800D1FEE064
:10C63000002833D1009B002B30D19E4E0021301CAE
:10C640000722FEF7E5FD9C4D6B78002B2CD1AB78D3
:10C65000002B00D0A1E02378012B00D1B3E0022B06
:10C6600000D1CDE02A7B002A31D1032B2FD1042326
:10C6700023702B7E002B00D172E0904B1A68002AA9
:10C680002FD02B78002B2CD08D4B1B78002B28D152
:10C6900001218C4B07201970904725E001220020D2
:10C6A000894B1A7006B070BD2378012B04D0AA788C
:10C6B000002A76D0022BD5D1804A1268002A00D1F8
:10C6C000F2E00121814B082019709047C3E72A7ED0
:10C6D000002A43D0794A1268002A02D0033B012B7A
:10C6E000CFD90022774B1A70182268460021FEF736
:10C6F0008FFD03236A46137000226B461A7223785B
:10C7000001920392022B00D1C1E02ED9032B00D15C
:10C7100094E0042B1FD16B46AA8B1A822A8C5A8272
:10C720006B4B1A79002A47D02A78002A47D0644AEE
:10C730001278002A43D169460393042302326548E4
:10C740000A720021C370FFF73DFC0028AAD106221F
:10C75000614B1A702378002B16D00FE0042BB9D14F
:10C7600000235D4A23701370BBE7012BF3D16946A8
:10C770004A820A82584A01960B7013706846FFF786
:10C78000A5FE002800D08DE74C4B1B68002B02D083
:10C79000514A10789847002084E72378012B89D1EB
:10C7A0008AE7022B00D05DE7032323702B7B002B4D
:10C7B00000D15CE703238DE71A7B002AB4D1042261
:10C7C000454B1A70DAE76A78002A17D07278002A87
:10C7D00000D07FE7B278002A00D07BE7F278002A09
:10C7E00000D077E73279002A00D073E77279002A07
:10C7F00000D06FE7B279002A00D06BE702232370E4
:10C80000AB78002BD0D07378002B0ED1B378002BEF
:10C810000BD1F378002B08D13379002B05D1737934
:10C82000002B02D1B379002BBED0022352E7684619
:10C8300000F0C8FC002800D1FCE6FEE66B46AA8AA0
:10C840005A822A8A1A82224B1A79002A18D02A7808
:10C85000002A18D01A4A1278002A14D16946039384
:10C86000042302321B480A720021C370FFF7AAFB9F
:10C87000002800D016E70522174B1A7023786AE7C4
:10C880001A7B002AE3D10322134B1A7076E70122A8
:10C8900069460A706A4629890196518269466A6822
:10C8A0000A820D4A137069E708490A70D4E6C04647
:10C8B00044260020302100203821002004210020BF
:10C8C0002B210020AF21002008210020D4210020AE
:10C8D000802100200C260020E42100200C49031CAC
:10C8E0000A780820002A00D170471878094A107089
:10C8F0005878507098789070D878D07018791071F6
:10C90000587950719B790020937100230B70EBE7ED
:10C91000D421002030210020F0B5002820DBFF27A3
:10C920001B4B03229C463B1C8408C026C0B202401D
:10C93000D2009340A4006444B600A5599D438B01E6
:10C940003B409340191C2943A1511F2318401E3B13
:10C950008340C022181C0E4B520098501860F0BD46
:10C96000FF260C4A03249446321C0F23C0B2044015
:10C97000E400A2400340083B9B089B006344DD6940
:10C9800095438A013240A240111C2943D961DCE75A
:10C9900000E100E000ED00E0F0B544465F46564699
:10C9A0004D46F0B49C4A87B013680024012B00D197
:10C9B000AEE09A4B1A68012A00D1B7E0984B1A688A
:10C9C000012A00D1C2E0974B1A68012A00D1CDE0BC
:10C9D0000022954B02921A68012A00D1D8E0230761
:10C9E0000BD0E30700D5DFE0A30700D5EBE063073A
:10C9F00000D5F6E0230700D502E1002C06DB07B0E6
:10CA00003CBC90469946A246AB46F0BD00230127A8
:10CA10000493C03399460126844D7F42002303933B
:10CA2000E023DB0000249846231C4033E95C4BB232
:10CA300001332CD0C9B24B46081C98433B1CC34061
:10CA40001E4224D08B0901932B1820331B785BB234
:10CA50009B00EB589C46002B35D0331C83409A46F4
:10CA6000019B032B35D0A023DB059B464346820068
:10CA70005A44D3580592C022920213401B0C191C31
:10CA800053469346029A1A4212D1032926D0013402
:10CA9000042CC9D1039B002BB1D0A223A022DB0020
:10CAA000D205D358029A9A42A9D0049F0293B5E7BF
:10CAB0000229ECD1019B032B16D06346002BE6D054
:10CAC0000199E047E3E7019B032BE0D1331C83404E
:10CAD0009A465246049B13430493C4E7019B032BDD
:10CAE000EBD180239B029B4643460599CB589A463F
:10CAF00052464F4B134042468B508B585A461A436E
:10CB0000131C42468B50039B0133DBB20393D4E7E3
:10CB1000C1214848890041580B4200D149E73F4BA9
:10CB200014601A680134012A00D047E7C122414944
:10CB30009200895802220A4200D13FE70021196081
:10CB4000374B14431A68012A00D03CE7C122394907
:10CB50009200895804220A4200D134E7002119606A
:10CB6000304B14431A68012A00D031E7C122314901
:10CB70009200895808220A4200D129E70021144373
:10CB800000221960284B02921A68012A00D026E779
:10CB900000221A6080231B061C43A022A223D20578
:10CBA000DB00D35802931AE7A223224ADB00D058B5
:10CBB000D1581E4DC00489032B68C00E890F9847B9
:10CBC000A30700D413E71C4B1A4A184DD058D1586C
:10CBD000C00489036B68C00E890F9847630700D4AF
:10CBE00008E7A323134ADB00D058D1580F4DC004E7
:10CBF0008903AB68C00E890F9847230700D4FCE671
:10CC00000C4A0E4B094DD058D158C0048903C00EB0
:10CC1000890FEB689847F0E600610040046100402E
:10CC2000086100400C6100407C610040E821002068
:10CC3000FFFFFCFF00600040140500001C05000021
:10CC4000074B1A680823520701D4181C70470028A4
:10CC500004D0044B5B7803600023F6E70E23F4E76F
:10CC6000FC22002030220020F0B557464E464546B3
:10CC7000E0B43B4C031CE27E0820002A04D01CBC1C
:10CC800090469946A246F0BD002B67D00122186855
:10CC9000A1258240A020ED00C0054251A9460325F0
:10CCA0001A68AA46C132FF329200155000255A6810
:10CCB000AC46C132FF32920015509F69294A2A4D75
:10CCC00057511D7DA84647465D7D3D43274FD551B1
:10CCD0005D681F68A846264D57514746254D575158
:10CCE0001D7D012D19D19F683E1CE0277F00B846AD
:10CCF0004644B70066463E50DE68B5404E46855114
:10CD00005646DD68C135FF35AD002E504E46D86819
:10CD10009D689051A220C00015501A696160226080
:10CD200000290DD0197F0023134A14481360144AB8
:10CD30001360C1230B4A9B00D0500220FFF7ECFD8B
:10CD4000A0230421074ADB00D15000230122E37510
:10CD50002376A375E276A376002090E7094B95E74A
:10CD60000023002000200040240500006C05000086
:10CD70000C050000140500001C210040800002008A
:10CD80004421004014F00100F0B5264A041C937DB4
:10CD90001120002B00D0F0BD0125917522482349B8
:10CDA000938294600B6005600B60938AE05C938AC9
:10CDB0001F4C01339BB293821E4BE05050680028F9
:10CDC00001D00020E7E70027261C1D1C0130FF30A2
:10CDD000947D938AA34203D312E0938A834202D0C4
:10CDE0000B68002BF9D0938A8342F2D00F60938AAC
:10CDF0009468E45C938A01339BB293827451E7E7B1
:10CE00008023918A5B0099420AD008490B68002B65
:10CE1000FCD001210020084B196000239375BAE76C
:10CE20000F20FAE700230020082000401C210040CA
:10CE3000002000401C0500000C200040024B987DA3
:10CE4000431E9841C0B2704700230020F0B547460A
:10CE500080B4444B5A68002A05D08126C224424D32
:10CE6000B600A4002E51DC7D002C0DD01C7E002CC1
:10CE70001DD0002A00D16EE08121C1233A4A8900E9
:10CE80009B00D15011200FE0D975997ED8605C7657
:10CE90001C7600292BD0002A0DD08121C12300202F
:10CEA000314A89009B00D15004BC9046F0BD186106
:10CEB0001976002AF1D12D4C2D4D22602A4A2D4899
:10CEC0009046A322D2009446296806684A1E9141E2
:10CED0002268C9B2571EBA41D2B2002E10D1002A20
:10CEE00027D10029F0D000220320DA75DCE7204AA0
:10CEF0001160204A116001211B4A11605A68CAE77B
:10CF00000029F0D1002A16D1D97D002917D101605E
:10CF1000624641468A585A7ED97D9142D4D8002231
:10CF2000DA759B7E002B18D001220F4B00201A606F
:10CF3000BAE70029D7D100220F20DA75B4E74646B8
:10CF4000614602605A7E7158DE68B1545A7E0132E1
:10CF5000D2B25A76DFE71120A6E70122064B002065
:10CF60001A60A1E700230020002000404421004077
:10CF7000242100400821004004200040064A937EFE
:10CF8000002B07D105490B6005490B6005490133AA
:10CF90000B6093767047C046002300202421004098
:10CFA0000821004000200040C12210B5604B9200D3
:10CFB0009A5884B092054DD55E4A1168002949D02F
:10CFC000002111608121C2228900920099505A4BA0
:10CFD0009A7E002A02D10121584A11600222694634
:10CFE0000A7090215248C900425842506946039243
:10CFF000DA7D68460A72DA68196801920022DA75E9
:10D000001A765B6898474E4A1368002B10D04A4B3B
:10D01000988A997D81424FD9002111609A8A996836
:10D02000895C9A8A013292B29A82464B404AD15028
:10D03000454B1A68002A0BD000221A603E4B9A7E9C
:10D04000002A02D001213A4A1160DA7D002A42D139
:10D0500004B010BDC123364A9B00D3585B07D2D51C
:10D060003A490B68002BCED0334BD87D00283FD1F6
:10D070000860A321C90052585A7ED97D9142C2D17D
:10D080001A7E002A41D19A7E002A02D101212B4A20
:10D0900011608120C222264980009200885000221F
:10D0A00068460121DA755A7E01700272DA681968E1
:10D0B00001925B689847A6E7002010600029B7D06E
:10D0C0006A46107011729A689875196801925B68C7
:10D0D00068469847ACE7002268460121DA755A7E17
:10D0E00001700272DA68196801925B689847AFE7CD
:10D0F00000200860A320C000597E1258D86842540E
:10D100005A7E0132D2B25A76B6E7DA751A69D96810
:10D11000DA6000226C46587E1A765A760132207206
:10D1200001912270196868465B6898476BE7C046B2
:10D130000020004024210040002300200420004063
:10D140001C2100401C050000442100400821004033
:10D1500010B500290DD00923002A01D1181C10BDDB
:10D16000541E2240FAD1826001608480C260002394
:10D17000F4E70E23F2E7C046031C10B59C888068D4
:10D18000DA68121A0420944200D210BDDA68002036
:10D1900014401A681155DA680132DA60F5E7C046C2
:10D1A00010B58468C268031C0520944209D09868B1
:10D1B0009A8802401868825C00200A709A680132DE
:10D1C0009A6010BD002804D0034B5B6D0360002003
:10D1D00070470320FCE7C0461C23002080218023E9
:10D1E000184A8902D1508022D221174B520289005D
:10D1F0005A5040395A5001222F205A600138C046F7
:10D20000C046C046C046C046C046C046C046C046EE
:10D21000C046C046C046F1D19A6000230B4A2F2079
:10D2200013600138C046C046C046C046C046C0462E
:10D23000C046C046C046C046C046C046F1D1044ABA
:10D240001370704700E100E00010014074230020DB
:10D2500094230020A021F0B5002347462B4A490023
:10D2600080B453500431535004315350043153505F
:10D270004C39535004315350254B1B68002B35D08B
:10D280002449002652582449244F0C68141B0022BC
:10D290002402240A904602E0002D18D02B1C1A68A4
:10D2A000A24214D8A41AB6181A7CDD69002AF3D059
:10D2B000424699691A745A693B68002B19D0101CB0
:10D2C00098470028E8D000F067FC002DE6D1144B09
:10D2D00014491A780B789A420ED0134A9B009E503C
:10D2E00080218023114A49035B00D15004BC904641
:10D2F000F0BD081C9047CFE70132D3B2022B01D01A
:10D300000B70EAE700230B70E7E7C046001001400E
:10D310007823002004050000742300207C230020D3
:10D3200088230020892300208C23002000E100E0D6
:10D33000F0B55F4656464D464446F0B4B54BB64A46
:10D340001B68B64989B0019309781378994200D1D6
:10D35000B3E10133DBB2022B00D100231370B04ADA
:10D360009B009B58AB4A9946019B4B441B021B0AEE
:10D37000136001230493AB4B00241B689B46AA4B0C
:10D38000D8461B781A1C0293A84B944607931B6837
:10D390000393A04B1B680693A54B1B7805935B4634
:10D3A0006646013EF2B29446FF2A4FD06246D00054
:10D3B000039A9246504401784578A942F0D04A0039
:10D3C0005218877801314668C9B27F1AB2467E1E6C
:10D3D000B741D2007F42524439401778022F0AD019
:10D3E000032FEAD1002BE8D01C74DB69002BFBD1A2
:10D3F00045789846E1E75668002B25D09E421AD022
:10D400001F1C00E0171CFA69002AD6D09642F9D1F9
:10D41000321C3D1CBE4200D1EBE01768D269EA61C4
:10D42000002A06D013689A46574417604578434649
:10D43000C3E74578C1E7DE691A1C002E00D1DDE0A4
:10D44000B046331C151CE8E70023B6E74146754A91
:10D45000181C11606F4A0699039311606946744A5B
:10D46000097D1170049A002A00D02AE15B461B1A3C
:10D470005A1E93410025DBB20493079B00271B68CB
:10D48000039E0693634B1B689C46664B1B689A463B
:10D49000674B1B780593674B019301239846029BCA
:10D4A000013BDBB20293FF2B00D18FE0069ADB0039
:10D4B00093469B44002D27D06968AB68281CED6912
:10D4C0006246019C8A1A1202120AA24250D8D3184C
:10D4D00042460360476087600274C761002E56D0E1
:10D4E0003168341C994204D35FE01168994263D2D9
:10D4F000141CE2695B1A002AF7D10360331CC26175
:10D50000E0611E1C002DD7D15B465A461B7852782D
:10D510009A42C4D0594649685A0089465946D21899
:10D520000133DBB20B708978D2004A4499424AD069
:10D5300011785068331C0129E3D1037C9946494690
:10D54000331C0029DDD191684160D3688360146980
:10D55000C46052698261059A002AB1D04A4600210E
:10D5600042606246019C8A1A1202120AA242AED995
:10D570006246511A0902090A99420CD242465B1AC4
:10D580000360476087600274C761002EA8D1031C46
:10D5900082461E1CB6E743460760476087600374F7
:10D5A000C761002EF3D000233168CB1A3360031C0F
:10D5B000C66182461E1CA5E7C91A11600360C261DC
:10D5C000331CE0619DE75B461D70B1E75246154B89
:10D5D0001A60039BB34231D1049B002B2ED1002350
:10D5E000134A137009B03CBC90469946A246AB461C
:10D5F000F0BDDE693A1C002E00D021E701250E4B5C
:10D6000001369D600023059600269846151C069657
:10D6100003E7C046742300208823002089230020CC
:10D620008C230020782300208023002084230020E6
:10D630008A230020FEFF7F0000100140002E62D0F0
:10D64000474B48493568CC58474B484E1B683078A3
:10D65000E21A1202120A0332904600285ED04246B5
:10D66000AA4200D22A1CA820D21812023D49130A4D
:10D67000C0003B4D0B504A591B1B121B1202120AD1
:10D680001B0203321B0A9A42A9D94B590B502F2077
:10D690000138C046C046C046C046C046C046C04627
:10D6A000C046C046C046C046C046F1D18021802356
:10D6B0002F4A89025B00D15091E7002399460493D9
:10D6C00059E647460025002100244846002B13D088
:10D6D0001A6882421AD8DE68801A89181C60DF69CD
:10D6E000002E07D0DD611D1C019A9E608A1812026F
:10D6F000120A5A603B1EEBD11E4B1F60002303939E
:10D7000001330493B9E6FFF769FD68E7121A1A605E
:10D7100003930123174904930F60AEE68020D127BD
:10D720004002BF00C851403FC851C0228027104866
:10D73000BF0252008750076001272F200F60013879
:10D74000C046C046C046C046C046C046C046C046A9
:10D75000C046C046C046C046F1D137707FE7C046DC
:10D7600004050000001001407423002094230020D1
:10D7700000E100E078230020F8B54F464646C0B4EB
:10D780000326351C80460F1C141C994615400720A3
:10D79000002D03D00CBC90469946F8BD002A44D019
:10D7A000FFF71CFD4A46224B80201A60221C214BA9
:10D7B00018321E70204B62601C607B00DB19DB009E
:10D7C000D218E260D318C022636125706570A7701B
:10D7D00025726572A77225746574A774C524FF212C
:10D7E000164B40031D60164B52001D70154BA400D4
:10D7F0001D70154B98501A598A433F390A431A51E4
:10D80000A122186040461149D2008850C4208000EF
:10D810001C580F4A2240C024240222431A500D4BA8
:10D820000020CA580C4B1A60B4E7034B1A60B1E7EA
:10D830007C230020802300208423002078230020E4
:10D84000882300208923002000E100E0001001402F
:10D85000FF00FFFF040500007423002010B50B4BF0
:10D860001B68002B0BD0002A07D0002805D00368C6
:10D8700008201C7C002C04D010BD0720FCE70820E9
:10D88000FAE759745A610020F6E7C0468423002065
:10D89000F0B5474680B4374B1C68002C08D00028F0
:10D8A00006D00723042905D8181C04BC9046F0BDF7
:10D8B0000823F9E74369002BFAD00025437CA846EA
:10D8C000012B2FD0EFF30583DB05DB0D1025002B9B
:10D8D0002CD164196378A5785E1CF6B2AD1B6F1E5F
:10D8E000BD416D422E402578B5421DD05D00EB183C
:10D8F0006568DB00ED180423002DD5D0033B2B70A9
:10D9000068601D4B1D48C358E960AB6043468021E9
:10D910002B6180236A611A4A5B0049036670D1500B
:10D920000023C1E78846CDE70423BDE7103BDEB204
:10D9300075B2002D13DBAD08114EC035AD00AD59E9
:10D9400003263340DB00DD402B069B0FDBB20025B6
:10D95000012BBED00835032BBBD00835B9E70F2308
:10D96000084D3340AC46083B9B089B0063445D6810
:10D970000323E6E784230020040500000010014093
:10D9800000E100E018ED00E070B5161C0C1C8D18CD
:10D99000002A05DD2078013400F0DEF8AC42F9D130
:10D9A000301C70BD10B50C1C201C00F0BBF8052805
:10D9B000FAD0012010BDC04630B5047885B0012CE6
:10D9C00019D0022C34D0002C01D005B030BD274C2A
:10D9D000274D201C291CFFF7E3FB002823D0A26859
:10D9E000E3689A42F1D1032302AA1370214B101C61
:10D9F0001B689847E9E743681F4D1978281CFFF713
:10DA0000BBFB002822D1AA68EB689B1A012B25D00A
:10DA1000A968AA88EB685B1A9A42D6D301211748F5
:10DA2000FFF714FAD1E7281C0121FFF7ADF9D6E77B
:10DA300002AB1C70C3680121104801930393FFF7E8
:10DA400005FA0C4B02A81B689847BEE702AB1C7096
:10DA5000084B03901B6802A89847D9E702AB1870DF
:10DA6000044B02A81B689847D2E7C046A4230020B5
:10DA7000982300209C230020B4230020A023002012
:10DA8000F0B51E1C214B051C89B00C1C1A60072028
:10DA9000002906D08A881E480968FFF759FB00282C
:10DAA00001D009B0F0BDA168A2891A48FFF750FB68
:10DAB0000028F6D16A46184B684692CB92C292CBA8
:10DAC00092C212CB12C2AB6806932B7906775A1E0C
:10DAD000934103756B790E22591E8B415B421A40AC
:10DAE0004275EB780D490293AB7803932B78019341
:10DAF0006B780093FFF7B8F80028D2D1FFF73EFA11
:10DB000001210748FFF7A2F9CBE7C0469C2300207C
:10DB1000B4230020A423002034F00100B9D901006F
:10DB2000A023002038B50A4C051CA168A288E36830
:10DB30005B1A9A4204D0201C291CFFF731FB38BD28
:10DB400004480121FFF782F90028F4D00520F6E708
:10DB5000B4230020A023002070B50D4D011C281C0B
:10DB6000FFF70AFB041E01D0201C70BDFFF766F909
:10DB70000028F9D1074E281C311CFFF711FB0028A3
:10DB8000F2D1301C0121FFF7FFF8041CECE7C0467E
:10DB9000A423002098230020002300B585B001AA0B
:10DBA0009060002103481380536000F005F805B031
:10DBB00000BDC04601400000BFF34F8F034A044B35
:10DBC000DA60BFF34F8FC046FDE7C0460400FA0598
:10DBD00000ED00E008B50378022B02D0012B00D045
:10DBE00008BD4068FFF7D8FFFAE7C04670B50E4C95
:10DBF00088B023780020002B14D101A8021C0B4B05
:10DC000062CB62C20A4B012504930A4B04A9069316
:10DC100080239B000793FE3B074AFF3B0595FFF7D8
:10DC20002FFF257008B070BDC423002054F0010000
:10DC3000C8250020C8230020D5DB01000FB400B5A3
:10DC400083B004A901C9019100F05CFA03B008BCDB
:10DC500004B0184752DF704710DF704760DF70472D
:10DC600061DF704708B5FFF7A7FF08BDF0B557465D
:10DC70004E464546E0B42F4B2F4E1D6899466B42E9
:10DC80005D412E4BB2461C68984663425C412C4F66
:10DC900082B0EDB2E4B2002D08D0002C23D002B047
:10DCA0001CBC90469946A246F0BD012401A8FFF78E
:10DCB000D1FF05282DD0002826D0FFF76DFF002CBE
:10DCC000F3D16A461C4B01A91B8893801C4B1C682E
:10DCD000201CFFF7C5FF0528E7D000280ED0FFF76E
:10DCE0005BFF0024D7E73C68338801A9201C0B8028
:10DCF000FFF7B6FF0528D2D00028F0D14346201CFC
:10DD00001B6898470024C6E74B4601981B68984754
:10DD1000D5E7002CC3D153466A461B8801A99380DE
:10DD2000074B01251C68201CFFF79AFF0528D4D15A
:10DD3000B5E7C046D0250020CA250020D425002004
:10DD4000CC25002038B5041C0720002901D08D0700
:10DD500000D038BD124801601249201C0A80124AC6
:10DD600012491360FFF778FF0028F2D10122104B0F
:10DD70001A70C5220F4B92009A58520207D50E4ACC
:10DD80005068002805D18022D2031A60E1E70B48D1
:10DD9000DFE780211368C9030B4313600020D8E735
:10DDA000CC250020CA250020D825002065DC0100F4
:10DDB000C925002000E100E04826002002200000E4
:10DDC000002803D0024B1860002070470E20FCE7AB
:10DDD000D4250020002803D0024B18600020704793
:10DDE0000E20FCE7D025002008B5094B1B68002B4E
:10DDF00006D09847002800D108BDFFF7CDFEFBE70D
:10DE0000044B1B78002BF7D0FFF730FFF4E7C04638
:10DE1000D8250020C925002070B5141C051C0E1C37
:10DE2000101C00211422FDF7F3F9002301222361C5
:10DE3000237B22809343237326726572002D01D0C9
:10DE40000123A372002070BD0020034B82B0019318
:10DE5000019B02B07047C046B01E002000B5054BC4
:10DE600083B00193019B69460093FFF7F7FE03B06F
:10DE700000BDC046B01E0020304B1B78012B00D0E7
:10DE800070472F4B1B681B07FAD1F0222D4B1B68E4
:10DE9000134027D12C4B1B68134229D0284B1B68F9
:10DEA0001B07EDD1F022274B1B681340402B32D0CB
:10DEB000244B1A68F0231340A02B01D0D02BDFD1C4
:10DEC000214B1A68F0231A42DAD1204A1368012B39
:10DED00004D01F4B13601368012BFCD1C0221D4BD3
:10DEE0001A60CDE7102B0FD1174B1B681342D9D105
:10DEF000194A1A4B1A608022194B12021A600F4BF2
:10DF00001B78012BCAD0BBE7302BCBD10E4B1B6843
:10DF10001342C7D1ECE70C4B1B681342C8D1C12395
:10DF200080220121DB00D205D150044B1B78012B4C
:10DF3000A6D1034B1B681B07BAD0A1E7E00F00F086
:10DF4000E40F00F0E80F00F0EC0F00F000EC0640EA
:10DF50007593000014EC0640DFFF07C00405004085
:10DF6000186C004003210A4802680A43026009480D
:10DF700002680A4302600849084A094B9B1A03DDFC
:10DF8000043BC858D050FBDCFFF776FFFDF7C8F81C
:10DF9000240500405405004000F10100B01E00209F
:10DFA000241F0020FEE7FEE7FEE7FEE7FEE7FEE7B0
:10DFB000002243088B4274D303098B425FD3030AC8
:10DFC0008B4244D3030B8B4228D3030C8B420DD3DB
:10DFD000FF22090212BA030C8B4202D31212090269
:10DFE00065D0030B8B4219D300E0090AC30B8B42A7
:10DFF00001D3CB03C01A5241830B8B4201D38B0355
:10E00000C01A5241430B8B4201D34B03C01A5241F9
:10E01000030B8B4201D30B03C01A5241C30A8B423C
:10E0200001D3CB02C01A5241830A8B4201D38B0227
:10E03000C01A5241430A8B4201D34B02C01A5241CB
:10E04000030A8B4201D30B02C01A5241CDD2C3093D
:10E050008B4201D3CB01C01A524183098B4201D3B9
:10E060008B01C01A524143098B4201D34B01C01AA4
:10E07000524103098B4201D30B01C01A5241C3081C
:10E080008B4201D3CB00C01A524183088B4201D38B
:10E090008B00C01A524143088B4201D34B00C01A77
:10E0A0005241411A00D20146524110467047FFE7E3
:10E0B00001B5002000F00CF802BDC0460029F7D0E1
:10E0C00003B5FFF775FF0EBC4243891A1847C046D7
:10E0D0007047C04630B50024944208D0035D651CEB
:10E0E0000C5DA34201D0181B02E02C1CF4E70020B9
:10E0F00030BD002310B5934203D0CC5CC45401332F
:10E10000F9E710BD094B70B51C68061C0D1C002CEE
:10E1100005D0A369002B02D1201C00F04BF8321C63
:10E120002B1C201CA16800F057F970BD101F0020A7
:10E1300008B5024900F0AEF808BDC046B9EC0100D0
:10E14000002310B5041C0360436083608181436633
:10E15000C281036143618361191C08225C30FDF7B1
:10E1600057F8054B24626362044BA362044BE362DD
:10E17000044B236310BDC04629E9010051E90100A9
:10E1800089E90100B5E9010070B568254B1E5D43C2
:10E190000E1C291C743100F09FF8041E08D00021C9
:10E1A0002A1C016046600C30A0606832FDF730F830
:10E1B000201C70BD836913B5002B28D18364C36410
:10E1C0000365134B134A1B6882620193984201D185
:10E1D00001238361041C00F01FF86060201C00F024
:10E1E0001BF8A060201C00F017F80421E06000225A
:10E1F0006068FFF7A5FFA06809210122FFF7A0FFD3
:10E20000E06812210222FFF79BFF0123A36113BDE7
:10E2100074EF010031E10100F8B51D4B061C1D68CB
:10E22000AB69002B02D1281CFFF7C4FF4835AC684E
:10E230006B68013B05D40C22A75E002F10D0683418
:10E24000F7E72B68002B06D1301C0421FFF79CFF59
:10E250002860002801D02D68E9E70C23336016E020
:10E260000123201C5B42E3810233A38167662760A0
:10E27000A760676027616761A7615C30391C08226D
:10E28000FCF7C6FF201C6763A763A764E764F8BDBB
:10E2900074EF0100F7B5041C071C002601914834F7
:10E2A000002C16D06368A5680093009B013B009387
:10E2B0000DD4AB89012B08D90E22AB5E013304D0FB
:10E2C000381C291C019B984706436835EDE72468F4
:10E2D000E6E7301CFEBD0000032370B5CC1C9C4358
:10E2E0000834051C0C2C01D20C2405E0002C03DAA8
:10E2F0000C2300202B6042E08C42F9D3204A1368A3
:10E30000101C191C002913D00A68121B0DD40B2AEB
:10E3100002D90A608B181FE08B4202D15A68026052
:10E320001BE04A685A600B1C17E00B1C4968E9E7C0
:10E33000144E3368002B03D1281C00F0E3FA306040
:10E34000281C211C00F0DEFA031C421CD0D0032242
:10E35000C61C964386420AD11C60181C07210B304C
:10E360001A1D8843821A0AD05142995007E0311A87
:10E37000281C00F0C7FA431CBAD0331CECE770BD70
:10E38000E0250020DC250020936810B5013B936058
:10E39000002B05DA9469A34208DBCBB20A2B05D027
:10E3A0001368581C10601970C8B201E000F008FB37
:10E3B00010BDF8B5061C0F1C141CD518AC4208D0B3
:10E3C0002178301C3A1CFFF7DFFF0134431CF5D1E4
:10E3D00000E00020F8BD0000F0B59FB0061C0F1C47
:10E3E00002920593002804D08369002B01D1FFF726
:10E3F000E1FE794B9F4201D1776808E0774B9F425D
:10E4000001D1B76803E0764B9F4200D1F768BB8922
:10E410001B070AD53B69002B07D0002306AD6B61B3
:10E4200020336B761033AB763DE0301C391C00F0A6
:10E4300033FB0028F1D001204042CAE0059A111DAB
:10E4400012680591002A7EDB0992013423782E2B75
:10E4500000D189E021786348032200F0C5FC002840
:10E4600008D0604B0134C01A40238340181C2B682D
:10E47000184328602178631C5B48062202932976A2
:10E4800000F0B2FC002800D191E0584B002B00D0E6
:10E4900084E00722059B07339343083305936B6998
:10E4A000039A9B186B61029C2378002B04D1029B7A
:10E4B000E31A049311D003E0252BF8D00134F3E7DD
:10E4C000049B301C391C029AFFF773FF431C7BD05E
:10E4D0006A69049B944663446B612378002B73D074
:10E4E0000122002352426A6002A9543252180134B8
:10E4F0002B60EB60AB601370AB6521783C48052264
:10E5000000F072FC002809D0394B0134C01A0123F5
:10E510008340181C2B6818432860EEE72B68DA0646
:10E5200004D55322202102A8121811701A0704D50D
:10E5300053222B2102A81218117022782A2A00D106
:10E540007CE7099B05E05242EA60022213432B60FC
:10E550007BE72278303A092A04D80A214B43013458
:10E560009B18F6E7099371E763782A2B09D1059B7D
:10E5700002341A1D1B680592002B0DDA01235B4241
:10E580000AE0002301342278303A092A04D80A210B
:10E590004B4301349B18F6E707935BE705AB009309
:10E5A000301C291C3A1C134B00E000BF07E005ABF0
:10E5B0000093301C291C3A1C0E4B00F08BF8039082
:10E5C000039B013300D06AE7BB895B0600D532E7C5
:10E5D0000B981FB0F0BDC04660F0010080F0010054
:10E5E000A0F00100C6F00100CAF001000000000028
:10E5F000C0F00100B3E30100F7B5171C01930A69ED
:10E600008B6800900C1C934200DA131C221C3B60A8
:10E6100043321278002A01D001333B6023689B0605
:10E6200002D53B6802333B60062523681D401ED09F
:10E63000231C43331B785A1E9341226892061CD533
:10E640003020E1184031C870211C5A1C453109782E
:10E65000A21840320233D1700FE0221C012300982F
:10E6600001991932089EB047431C0ED00135E3686A
:10E670003A689B1A9D42F0DBDAE7221C0098019968
:10E680004332089DA847431C02D10120404220E0AC
:10E6900006232068E1683A6803400025042B03D173
:10E6A0008D1AEB43DB171D40A3682269934201DDFD
:10E6B0009B1AED180027AF420ADA221C01230098AA
:10E6C00001991A32089EB047431CDED00137F2E7A9
:10E6D0000020FEBDF0B58BB006920A1C43320793B2
:10E6E000059004920A7E0C1C109B6E2A00D1A8E0B3
:10E6F00011D8632A22D009D8002A00D1B2E0582AC2
:10E7000000D0C2E045310A707C4A4FE0642A1DD037
:10E71000692A1BD0B9E0732A00D1A7E009D86F2A73
:10E7200029D0702A00D0B0E0202209680A43226074
:10E7300037E0752A1FD0782A33D0A6E00E1C1A685D
:10E740004236111D196013683370A1E021681A6800
:10E75000080606D4490604D5111D19600023D55EAC
:10E7600002E0111D19601568002D3BDA2D23049A73
:10E770006D42137036E021681A68080606D449060F
:10E7800004D51568111D1960ADB202E0111D1960A4
:10E7900015685A4B227E03930A276F2A1DD108273A
:10E7A0001BE0221C782145321170554A19680392EA
:10E7B000081D226818600D68100602D4500600D5A6
:10E7C000ADB2D30702D520231A4322601027002DB3
:10E7D00003D1202322689A432260231C0022433362
:10E7E0001A7002E00A27454B03936368A360002B6D
:10E7F00003DB0422216891432160002D02D1049E95
:10E80000002B0ED0049E281C391CFFF757FC039BDD
:10E81000013E5B5C281C3370391CFFF7C9FB051EE9
:10E82000F1D1082F09D12368DB0706D56368226977
:10E83000934202DC3023013E3370049B9B1B236117
:10E840002BE009681A68080607D4490605D5111D8A
:10E8500019601368A28A1A8004E0111D19601368F8
:10E8600062691A600023049E236116E01A68111D74
:10E87000196016680021301C626800F0B5FA0028A3
:10E8800001D0801B6060636803E0261C4236327052
:10E89000012323610023049A1370079B05980093BA
:10E8A000211C069B09AAFFF7A7FE431C02D10120E9
:10E8B000404221E0236905980699321C079DA8472C
:10E8C000431CF4D023689B0705D4099BE068984259
:10E8D00012DA181C10E00025E368099A9B1A9D4281
:10E8E000F3DA221C0123059806991932079EB047D6
:10E8F000431CDCD00135EFE70BB0F0BDD1F00100D7
:10E90000E2F0010038B50023064C051C081C23600A
:10E9100000F014FB431C03D12368002B00D02B60B4
:10E9200038BDC0465026002038B50C1C0E25495F66
:10E9300000F0ACFA002803DB636D1B18636503E08D
:10E94000A289024B1340A38138BDC046FFEFFFFFF1
:10E95000F8B51E1C8B89051C0C1C171CDB0505D586
:10E960000E23C95E0022022300F0D2F9A289054BD2
:10E97000281C1340A3813A1C0E23E15E331C00F0D7
:10E9800077F8F8BDFFEFFFFF38B50C1C0E25495F87
:10E9900000F0BEF9A389421C03D1054A1340A381AC
:10E9A00004E0802252011343A381606538BDC04654
:10E9B000FFEFFFFF08B50E23C95E00F0E1F808BDC8
:10E9C00070B5051C0E1C141C002804D08369002B94
:10E9D00001D1FFF7EFFB234B9C4201D16C6808E0AB
:10E9E000214B9C4201D1AC6803E0204B9C4200D1FA
:10E9F000EC68A369A360A3891B070AD52369002BD0
:10EA000007D023682269F6B2981A636998420FDB2F
:10EA100008E0281C211C00F03FF80028F1D001205C
:10EA200040421DE0281C211C00F046F90028F6D1C8
:10EA3000A3680130013BA36023685A1C22601E704A
:10EA40006369984205D0A389301CDB0708D50A2EDC
:10EA500006D1281C211C00F02FF90028DFD1301C22
:10EA600070BDC04660F0010080F00100A0F0010020
:10EA700038B5051C0020074C2060081C111C1A1C0E
:10EA8000FEF782FF431C03D12368002B00D02B60CC
:10EA900038BDC04650260020354B70B51D68061C99
:10EAA0000C1C002D05D0AB69002B02D1281CFFF7F0
:10EAB00081FB304B9C4201D16C6808E02E4B9C429C
:10EAC00001D1AC6803E02D4B9C4200D1EC68A389D6
:10EAD0009AB2110723D4D10607D40922012032604B
:10EAE00037321343A381404240E0530713D5616B93
:10EAF000002908D0231C4433994202D0301C00F076
:10EB00007FF9002363632422A3899343A381002315
:10EB10006360236923600822A3891343A3812369C7
:10EB2000002B0BD1A023A2899B00134080229200CE
:10EB3000934203D0301C211C00F0FEF80123A2896F
:10EB4000134005D00023A36063695B42A36103E027
:10EB5000910700D46369A36000202369834205D133
:10EB6000130603D540231A43A281013870BDC04665
:10EB7000101F002060F0010080F00100A0F00100F3
:10EB800038B50023064C051C081C236000F0B6F9BC
:10EB9000431C03D12368002B00D02B6038BDC04636
:10EBA00050260020F7B58A89051C0C1C13075ED47B
:10EBB0004B68002B02DC0B6C002B1ADDE76A002F80
:10EBC00017D000232E682B6080235B011A4001D0F0
:10EBD000626D15E0281C216A0123B847021C431C02
:10EBE0000ED12B68002B0BD01D2B01D0162B02D180
:10EBF0002E6000205EE04021A3890B43A38159E0F1
:10EC0000A3895B0706D56368D21A636B002B01D01A
:10EC1000236CD21A0023281C216AE76AB847A3890B
:10EC2000421C06D12A68002A03D01D2A01D0162AC8
:10EC300019D10022626022692260DB0405D5431CE1
:10EC400002D12B68002B00D16065616B2E6000291A
:10EC5000CFD0231C4433994202D0281C00F0D0F8B6
:10EC60000020606326E040221343A38122E00F6965
:10EC7000002FBED00B680F60DB1B019300239207AF
:10EC800000D14B69A360019B002BB2DD281C216AD7
:10EC90003A1C019BA66AB047002806DC40220120EE
:10ECA000A38940421343A38104E0019B3F181B1A30
:10ECB0000193E8E7FEBD000038B50B69051C0C1C8C
:10ECC000002B01D100201CE0002804D08369002B18
:10ECD00001D1FFF76FFA0B4B9C4201D16C6808E041
:10ECE000094B9C4201D1AC6803E0084B9C4200D127
:10ECF000EC680C22A35E002BE4D0281C211CFFF73B
:10ED000051FF38BD60F0010080F00100A0F001006B
:10ED100038B5051C0020074C2060081C111C1A1C6B
:10ED200000F004F9431C03D12368002B00D02B60B2
:10ED300038BDC04650260020F0B58B8991B09B07A6
:10ED400006D50B1C47330B600B6101234B6145E07B
:10ED50000C1C0E23C95E061C002904DA8023A58939
:10ED60001D4010D10CE001AA00F0A4F80028F5DB4A
:10ED7000F023029D1B021D40194BED186B425D41B3
:10ED80008027FF0001E000254027301C391CFFF7D9
:10ED9000A3FA00280CD1A3899A051FD40222134399
:10EDA000A381231C4733236023610123636115E0A2
:10EDB00080220C4BB362A38920601343A38120619E
:10EDC0006761002D0AD00E23E15E301C00F084F84C
:10EDD000002803D00122A3891343A38111B0F0BD01
:10EDE00000E0FFFF31E10100C9B28218904204D077
:10EDF00003788B4202D00130F8E700207047000012
:10EE000030B500293ED004390B68002B00DAC91850
:10EE10001D4A1368141C002B02D14B60116031E0B5
:10EE200099420DD208680A189A4203D11368C31890
:10EE30000B6053684B60216024E08A4203D8131CA6
:10EE40005A68002AF9D11D685C198C420BD10968F7
:10EE5000691858181960904214D11068526809183E
:10EE600019605A600EE08C4202D90C23036009E05D
:10EE700008680C18944203D114685268001908609D
:10EE80004A60596030BDC046E025002038B5051CF9
:10EE90000020074C2060081C111C1A1CFEF782FD84
:10EEA000431C03D12368002B00D02B6038BDC04623
:10EEB0005026002038B50023064C051C081C111CE8
:10EEC000236000F023F8431C03D12368002B00D0FB
:10EED0002B6038BD5026002038B50023064C051C99
:10EEE000081C236000F01AF8431C03D12368002B90
:10EEF00000D02B6038BDC04650260020582201208B
:10EF0000014B40421A6070475026002058220120D1
:10EF1000014B40421A607047502600205822024B95
:10EF200000201A607047C046502600205822012059
:10EF3000014B40421A60704750260020044A136873
:10EF4000002B03D018181060181C7047014BF9E70C
:10EF5000E425002058260020F8B5C046F8BC08BCBF
:10EF60009E467047F8B5C046F8BC08BC9E46704740
:10EF700043000000B01E00200100000750656572CC
:10EF80002064657669636527732063757272656EA8
:10EF900074206C6F636174696F6E2069733A202509
:10EFA000640D0A0002010600FF55AA0041445620E4
:10EFB0004576656E742049646C652E200D0A00004C
:10EFC0005065657220416464726573732072657167
:10EFD00075657374206576656E742E200D0A0000C9
:10EFE00043616C6C696E672041445620696E697498
:10EFF0002E200D0A0000000043616C6C696E6720D2
:10F000004144562073746172742E200D0A00000072
:10F01000D4200020090000000B0000000A000000BE
:10F0200008000000000000000000000000E0D70120
:10F0300003000000090000000B0000000A000000AF
:10F0400008000000000000000000000000E0D70100
:10F05000030000000B09080A0100000000E0D701CE
:10F0600000000000000000000000000000000000A0
:10F070000000000000000000000000000000000090
:10F080000000000000000000000000000000000080
:10F090000000000000000000000000000000000070
:10F0A0000000000000000000000000000000000060
:10F0B0000000000000000000000000000000000050
:10F0C000232D302B2000686C4C0065666745464751
:10F0D00000303132333435363738394142434445D4
:10F0E0004600303132333435363738396162636443
:08F0F00065660000000000004D
:08F0F80028C0FF7F01000000A9
:10F100000000000060F0010080F00100A0F00100AC
:10F1100000000000000000000000000000000000EF
:10F1200070EF01000000000000000000000000007F
:10F1300000000000000000000000000000000000CF
:10F1400000000000000000000000000000000000BF
:10F1500000000000000000000000000000000000AF
:10F16000B01E00200A0A0A81E9B00100C1B0010006
:04F17000000000009B
:040000031000DF65A5
:00000001FF
